:101C3400796561722D3230006D6F6E74682D0064A9
:101C440061792D00686F75722D006D696E7574650C
:101C54002D007365636F6E642D0025732530326229
:021C640064001A
:100F7A004300E40102074100EE024100E1014100A1
:100F8A00E3014100F7014100F6004100D3004100AE
:100F9A00D4004100E201015C00015D00015E000134
:020FAA005F00E6
:1009510043BA80121DDE121E32121E81121DC543C2
:100961008E4053890F758B9A758DA9C28FD28ED205
:10097100AB9000EEE024E4F582E43400F583E0FF7F
:100981007E00121E0C9000F7E0FF64016004EFB4DA
:10099100022D9000A512042C000001F4AF6FAE6E81
:1009A100AD6DAC6C121A18EF7003020BFC1216F14C
:1009B100851C6F851B6E851A6D85196C020BFC9069
:1009C10000A512042C0000012CAF63AE62AD61AC36
:1009D10060121A18EF7003020BFC9000D4E0700350
:0309E100020BDE28
:1009E4007E007F087D007B017A0079D6120546904F
:1009F40000D4E0B4FF1378EF7C007D017B017A0022
:100A040079E77E007F071200EE9000D4E0B4030F74
:100A14009000E2E004F0E0D3940640037401F09007
:100A240000E2E024FE6043146066147003020AB915
:100A3400147003020ADE147003020B03240560031E
:100A4400020B299000DE7401F0A37400F0A374EF8C
:100A5400F090009F7432F0A37417F078D67C007D78
:100A6400017BFF7A1C7934020B269000DE7401F0BE
:100A7400A37400F0A374F0F090009F740CF0A374BE
:100A840001F078D67C00FD7BFF7A1C793C020B26B2
:100A94009000DE7401F0A37400F0A374F1F09000F0
:100AA4009F741FF0A37401F078D67C00FD7BFF7A5D
:100AB4001C7943806D9000DE7401F0A37400F0A3F0
:100AC40074F3F090009F7417F0E4A3F078D67C00E0
:100AD4007D017BFF7A1C794880489000DE7401F028
:100AE400A37400F0A374F4F090009F743BF0E4A3AB
:100AF400F078D67C007D017BFF7A1C794E802390B0
:100B040000DE7401F0A37400F0A374F5F090009F6C
:100B1400743BF0E4A3F078D67C007D017BFF7A1C63
:100B240079561205299000D4E0FF640270309000D9
:100B3400DEE0FBA3E0FAA3E0F9120114600C14FE5A
:100B44009000A0E0FDEEC39D500590009F8037907B
:100B540000DEE0FBA3E0FAA3E0F974FF8030EFB419
:100B6400012F9000DEE0FBA3E0FAA3E0F9120114E8
:100B74002401FFE433FE90009FE0FDD3EF9D7480D9
:100B8400F86E984007A3E012017C800574011201FD
:100B94005A7E007F0A7D007B007A00797012054638
:100BA4009000AA74FFF0A3741CF0A3745EF0A37405
:100BB40001F0A37400F0A374D6F09000DEE0FBA370
:100BC400E0FAA3E0F91201149000B0F07B007A007F
:0A0BD4007970120651E49000D4F08D
:100BDE00E49000E1F0FB7A0079709000A8F0FD122D
:100BEE00109C851C63851B62851A618519609000B7
:100BFE00F6E060319000EFE0FFA3E0FDA3E0FB9094
:100C0E0000A47401F09000F3E09000A5F09000F4C1
:100C1E00E09000A6F09000F5E09000A7F01218AA60
:100C2E00E49000F6F09000E1E060279000A5120439
:100C3E002C00000064AF6BAE6AAD69AC68121A1876
:100C4E00EF600F1211B3851C6B851B6A851A6985BF
:100C5E0019689000E3E070030209729000A5120477
:100C6E002C0001D4C0AF67AE66AD65AC64121A1825
:100C7E00EF70030209721214B3851C67851B66851B
:080C8E001A6585196402097260
:101A18009000A1120420AF1CAE1BAD1AAC199000A7
:101A2800A1E0F8A3E0F9A3E0FAA3E0FBD312038056
:101A3800502B9000A1E0F8A3A3A3C3E51C9BFFE5EE
:101A48001B9AFEE51A99FDE51998FCA3E0F8A3E0B6
:101A5800F9A3E0FAA3E0FBD312038050037F01222D
:031A68007F0022DA
:1016F1007B017A0079E7120C967E007F0A7D007BE0
:10170100007A0079701205469000F7E0B401299043
:1017110000D3E070047F0180027F009000D3EFF0DE
:101721009000A4E4F0A37400F0A37470F07B017A3C
:101731000079E712191180219000F7E0B4021AE450
:101741009000D3F09000A4F0A37400F0A37470F0A3
:101751007B017A0079E7121ABB7B007A00797090DD
:0C17610000D3E0FDE49000A8F002109C12
:03001B00020E458D
:100E4500C0E0C0F0C083C082C0D075D000C000C073
:100E550001C002C003C004C005C006C007E55B248D
:100E650001F55BE4355AF55AE43559F559E4355839
:100E7500F558E47F32FEFDFCAB5BAA5AA959A85888
:100E8500C31203804024755B00755A0075590075BF
:100E9500580020B305755C01801020B405755D010F
:100EA500800820B505755E01055F30B327E55C60F8
:100EB50023755C009000F7E0FF64106011EFB40249
:100EC500047F0180027F029000F7EFF0800690001A
:100ED500D47402F030B429E55D6025755D0090009D
:100EE500F7E0B410089000D47401F080139000EE80
:100EF500E02401FFE433FE7C007D031201C2EDF026
:100F050030B555E55E6051755E00E55FC3942840D8
:100F1500249000F7E0B410097401F09000F6F08019
:100F2500349000F77410F09000E27401F09000D452
:100F350074FFF080209000F7E0B410089000D4749E
:100F450003F080119000E1E070047F0180027F00D2
:100F55009000E1EFF0755F00C28FD007D006D00595
:100F6500D004D003D002D001D000D0D0D082D0831D
:050F7500D0F0D0E032D5
:071E6C002562640000000084
:100FAC00410006011B3D0000000000000000000095
:100FBC000000000000000000000000000000000025
:100FCC00001B2200000000000000000000000000D8
:100FDC00000000000000000000000000000060980D
:100FEC000007003333000020100000E1210000E175
:100FFC00300000E2100000C3300000C331000021BB
:10100C00100000E3310000E330000008040000E3AE
:10101C00110000A93400000321000029340000C392
:10102C00210000C3010000C3310000E211000009DF
:10103C0024000008240000520900000221000036A0
:10104C001100002619000023310000E101000023EB
:10105C00390000E3090000C330000009040000223D
:10106C0031000024180000221B0000140A00001498
:10107C0004000011200400C00000410005094400D8
:09108C0000000400004100040012
:101BC70090FECCE4F090FEC97468F090FECC7410DF
:101BD700F090FED7E4F0A37496F090FED27403F071
:101BE700A374E8F090FEB17404F090FEDD7480F009
:081BF70090FEC0E04481F022E1
:0D000E0090FEC0E054FEF090FEB1E4F02240
:101DC500D291121BC77F06121BFFE4FF121B8A7FED
:091DD500077E00121E0C021CE046
:08000300C29112000E021CE084
:101CE0007E007F1B7D007B007A00793D1205467BDC
:101CF000007A00793D9000B6E4F0A3741BF0E4FF95
:031D000002154B7E
:061667009000A212042015
:10166D0078A67C007D017BFF7A1E79707E007F035A
:10167D001200EE7E007F037D007B017A0079A612B9
:10168D0005469000A2E0FCA3E0FDA3E0FEA3E0FF71
:10169D00EC4D4E4F603A9000A2A3A3A3E078101238
:1016AD000391A3EFF09000A2E0FCA3E0FDA3E0FE08
:1016BD00A3E0FF78081203919000A7EFF09000A22D
:1016CD00E0FCA3E0FDA3E0FEA3E0FF9000A8EFF097
:1016DD007B017A0079A69000B6E4F0A37403F07F45
:0416ED001B02154B7C
:10109C009000A7EDF09000A4EBF0A3EAF0A3E9F028
:1010AC00121DF7E49000A9F0A3F0A3F0A3F0D3EF86
:1010BC009409EE940040067E007F0980009000ADFC
:1010CC00EEF0A3EFF07E007F1B7D007B007A0079B1
:1010DC003D120546E49000ABF0A3F09000ADE0FEAD
:1010EC00A3E0FF9000ABE0FCA3E0FDC39FEC9E40AF
:1010FC000302118A9000A4E0FBA3E0FAA3E0F98DAF
:0A110C00828C8312012D6065606380
:101116009000ABE0FEA3E0F5828E8312012DFF1254
:1011260013C09000AFEBF0A3EAF0A3E9F01203CBF3
:101136007810120391E49000A975F00112024D7423
:101146003D25F0F8A6071203CB7808120391E49028
:1011560000A975F00112024D743D25F0F8A607129C
:1011660003CBE49000A975F00112024D743D25F001
:03117600F8A607D1
:101179009000ACE004F070069000ABE004F00210BF
:10118900E79000A8E060034344409000A7E06006B0
:10119900434A404350407B007A00793D9000B6E4D1
:0A11A900F0A3741BF0E4FF02154BE5
:101E0C00900006E06F7001EE6008EFF0FD7F0112AC
:031E1C001B4C223A
:0612BD009000B3120420B2
:1012C3009000BFE0F8A3E0F9A3E0FAA3E0FBA3E0FA
:1012D300FCA3E0FDA3E0FEA3E0C39BFFEE9AFEEDBB
:1012E30099FDEC98FCA31204209000B7E0F8A3E06A
:1012F300F9A3E0FAA3E0FBA3E0FCA3E0FDA3E0FE77
:10130300A3E0C39BFFEE9AFEED99FDEC98FC9000E1
:10131300CB1204209000B7E0F8A3E0F9A3E0FAA30E
:10132300E0FB9000B3E0FCA3E0FDA3E0FEA3E0C379
:101333009BFFEE9AFEED99FDEC98FC9000CF120412
:1013430020E47B02FAF9F89000CBE0FCA3E0FDA3D4
:10135300E0FEA3E0FF121B08C004C005C006C007DF
:101363009000C7E0FCA3E0FDA3E0FEA3E0FF900034
:10137300CFE0F8A3E0F9A3E0FAA3E0FB120263D005
:1013830003D002D001D000EF2BFFEE3AFEED39FD82
:10139300EC38FC9000CBE0F8A3E0F9A3E0FAA3E07B
:1013A300FB121B089000BFE0F8A3E0F9A3E0FAA347
:0C13B300E02FFFEA3EFEE93DFDE83CFCB7
:0113BF00220B
:1013C0009000B2EFF0BF20030214AC9000B2E0FF37
:1013D000B42D077B017A00799B22C3EF648094B01F
:1013E0004045D3EF648094BA503D9000B2E0FF33A3
:1013F00095E0FEFDFCC004C005C006C0079000B724
:1014000012042C000000309000BB12042C000000DD
:101410003A9000BF12042C000000009000C3120498
:101420002C0000000A804B9000B2E0FFC36480945F
:10143000C1405ED3EF648094DA5056E03395E0FE0D
:10144000FDFCC004C005C006C0079000B712042C04
:10145000000000419000BB12042C0000005A9000D4
:10146000BF12042C0000000B9000C312042C0000DB
:101470000024D007D006D005D0041212BDE47B04AE
:10148000FAF9F812026374072FF974003EFA7B012F
:10149000229000B2E0FFC3648094E1400FD3EF6478
:1014A0008094FA5007EF24E0FF0213C07B007A001B
:0314B0007900229E
:0811B300900005E06409706E74
:1011BB00900000E0FCA3E0FDA3E0FEA3E0FF12160D
:1011CB0067900004E004F0E0FBB4030C9000001205
:1011DB00042C000080008024EBC39403E4FFFE7D0D
:1011EB0004FC900004E05007F9F81203A4800724D4
:1011FB00FDF9F81203B8900000120420900004E0EF
:10120B00FFB40403E4A3F0EF640760030212BC9085
:0D121B000004F090000012042C00040000FC
:0112280022A3
:10122900900005E0FF70047F018007EF75F003A4CB
:1012390004FF9000A1EFF078227C007D007B007A0A
:1012490000793D7E007F1B1200EE900005E0FF64EF
:10125900026009EF64046004EFB4060D9000A1E098
:101269002422F8E64480F6800B9000A1E02422F8BD
:10127900E644C0F6900005E07007FFFEFDFC12167B
:10128900677B007A0079229000B6E4F0A3741BF022
:10129900E4FF12154B900005E004F0E0B409147B5B
:1012A900007A00793D9000B6E4F0A3741BF0E4FFE6
:0312B90012154BC0
:0112BC00220F
:1014B3009000A17401F07E007F0C7D007B007A0018
:0A14C3007908120546E49000A2F03B
:1014CD00121E639000A1E0F9F81203B8E47B0AFA4A
:1014DD00F9F81202EEAF039000A3EFF09000A2E036
:1014ED007B002408F9E43400FA9000AA74FFF0A3FD
:1014FD00741EF0A3746CF0A3EFF01206517F017E01
:08150D00007D007C00121D6846
:101515009000A2E004F0E0C3940A40AC7B007A009E
:101525007908E49000A8F0FD12109C7F0A7E007DEA
:10153500007C00121D689000A1E004F0E0D3940A3D
:0515450050030214B97F
:01154A00227E
:0517DA009000BAEFF0E1
:1017DF00E4A3F0A3F0C2909000BBF0A3F07F0A7EC9
:1017EF00007D007C00121DA99000BAE030E004D209
:1017FF00B78002C2B77F0A7E007D007C00121DA950
:10180F00D2907F0A7E007D007C00121DA9C29090AD
:10181F0000BAE0C313F09000BCE004F07006900033
:10182F00BBE004F0C39000BCE094089000BBE094D0
:03183F000040AABC
:011842002283
:101B8A009000A17440F0EF6004E04404F0D2947F26
:101B9A000A7E007D007C00121DA9C2947F0A7E0085
:101BAA007D007C00121DA99000A1E0FF1217DA7FC8
:0C1BBA000A7E007D007C00121DA9D29460
:011BC60022FC
:101BFF009000A1EFF0D2947F0A7E007D007C00124E
:101C0F001DA9C2947F0A7E007D007C00121DA99041
:101C1F0000A1E0FF1217DA7F0A7E007D007C001220
:051C2F001DA9D2942262
:101B4C00ED44809000A1F0EF6004E04408F0D294E2
:101B5C007F0A7E007D007C00121DA9C2947F0A7E44
:101B6C00007D007C00121DA99000A1E0FF1217DA85
:0D1B7C007F0A7E007D007C00121DA9D2941E
:011B89002239
:0E154B009000B2EFF0A3EBF0A3EAF0A3E9F0FA
:10155900E49000B8F0A3F0D2947F0AFEFDFC121DBE
:10156900A9C2947F0A7E007D007C00121DA990000B
:10157900B2E044C0FF1217DA7F0A7E007D007C00CA
:10158900121DA9E49000B8F0A3F09000B6E0FEA304
:10159900E0FFA3E0FCA3E0FDC39FEC9E5026900072
:1015A900B3E0FBA3E0FAA3E0F98D828C8312012D4D
:1015B900FF1217DA9000B9E004F070CE9000B8E09D
:1015C90004F080C67F0A7E007D007C00121DA9D22E
:0115D900947D
:0115DA0022EE
:101CBA0057256264202530326264253032626425F9
:101CCA003032626400323025626420253032626428
:061CDA00253032626400B7
:071E7300439140439240221D
:071E7A004391405392BF2287
:0F1E450043912043922043918053927F021E735A
:0B1C6600EFF0A3EBF0A3EAF0A3E9F01D
:101C7100121E73D296D2957F047E007D007C0012E5
:101C81001DA9C2967F047E007D007C00121DA9C2A1
:021C910095229A
:101D4700121E73C295C296D2957F047E007D007CD9
:101D570000121DA9D2967F047E007D007C00021D23
:011D6700A9D2
:101D0300121E73D296C2957F047E007D007C001262
:101D13001DA9D2957F047E007D007C00121DA9C2FF
:021D2300952207
:101D2500121E73C296C2957F047E007D007C001250
:101D35001DA9D2957F047E007D007C00121DA9C2DD
:021D45009522E5
:10176D00E49000B7F0A37403F0D2967F017E007D64
:10177D00007C00121DA9121E7A7F017E007D007C67
:10178D0000121DA9D2957F017E007D007C00121DE7
:10179D00A930961C9000B8E0D3940040137F017ED1
:1017AD00007D007C00121DA99000B8E014F080E1CE
:1017BD009000B8E060069000B77401F09000B7E0BB
:0C17CD007003121D47C2959000B7E0FFAA
:0117D90022ED
:0519C2009000B5EFF0FC
:1019C700121E73C2957F047E007D007C00121DA944
:1019D700E49000B6F09000B5E030E704D2968002BC
:1019E700C2967F047E007D007C00121DA9D2957FE0
:1019F700047E007D007C00121DA9C2959000B5E011
:101A0700FF25E0F0A3E004F0E0C3940840C7021705
:011A17006D61
:05196B009000B1EFF057
:10197000E4A3F0121E7AA3F0C2957F047E007D00DE
:101980007C00121DA9D2959000B2E025E0F03096BF
:1019900004E04401F07F017E007D007C00121DA95F
:1019A0009000B3E004F0E0C3940840CCC2959000EE
:1019B000B1E06005121D258003121D039000B2E006
:0119C000FF27
:0119C1002203
:031843009000AB67
:10184600121C667F641219C2EF60589000ABE0FF6D
:101856001219C2EF604D121C717F651219C2EF603A
:1018660042E49000B0F09000AFE0FFA3E0FEC39F1B
:10187600502EEF14B506047F0080027F0112196B0B
:101886009000ACE0FBA3E0FAA3E0F99000B0E0F52D
:1018960082758300EF12018E9000B0E004F080C6DE
:0318A600121D47C9
:0118A900221C
:031A6B009000AF39
:101A6E00121C667F641219C2EF60419000AFE0FF56
:101A7E001219C2EF6036E49000B4F09000B3E0FFAC
:101A8E00A3E0FEC39F50229000B0E0FBA3E0FAA3B8
:101A9E00E0F98E8275830012012DFF1219C2EF60DC
:0C1AAE000B9000B4E004F080D2121D4741
:011ABA002209
:031E8100021E45F9
:101E1F00EF75F00A84C454F0FEEF75F00A84E5F014
:031E2F004EFF2241
:0F1E5400EFC4540F75F00AA4FEEF540F2EFF22B7
:0218AA00AC0789
:1018AC00121E459000A7E0FF121E1FA3EFF0900040
:1018BC00A6E0FF121E1F9000A9EFF09000A5E0FF1C
:1018CC00121E1F9000AAEFF09000A4E0FFF8E408AD
:1018DC008002C313D8FC44019000ABF0AF03121E7E
:1018EC001FA3EFF0AF05121E1FA3EFF0AF04121EE3
:1018FC001FA3EFF07B017A0079A89000B37407F076
:05190C00E4FF021A6B6C
:0B0C96009000A1EBF0A3EAF0A3E9F04E
:100CA100121E457B017A0079A49000AF7407F0E42D
:100CB100FF1218439000A4E0FF121E549000A1E01F
:100CC100FBA3E0FAA3E0F9900006EF12018E900079
:100CD100A5E0FF121E549000A1E0FBA3E0FAA3E0FF
:100CE100F9900005EF12018E9000A6E0FF121E544C
:100CF1009000A1E0FBA3E0FAA3E0F9900004EF1259
:100D0100018E9000A8E0FF121E549000A1E0FBA309
:100D1100E0FAA3E0F9900002EF12018E9000A9E041
:100D2100FF121E549000A1E0FBA3E0FAA3E0F990AA
:100D31000001EF12018E9000AAE0FF121E549000F4
:100D4100A1E0FBA3E0FAA3E0F9EF12017C9000A17E
:100D5100E0FBA3E0FAA3E0F9120114D39463400588
:100D6100741712017C9000A1E0FBA3E0FAA3E0F963
:100D710090000112012DD3940C4005740C12017CDA
:100D81009000A1E0FBA3E0FAA3E0F99000011201B9
:100D91002D2401FFE433FE7C007D0D1201B07D05A1
:100DA100120217120114FD1313543F2DFDE433CD2C
:100DB1002FFFED3EFE90000212012D7C002FFFEC73
:100DC1003ECF24DCCF34FFFE7D07120217900003D3
:100DD100ED12018E90000312012DD3940740139060
:100DE10000A1E0FBA3E0FAA3E0F99000037407126D
:100DF100018E9000A1E0FBA3E0FAA3E0F9900003CB
:100E010012012D7008900003740712018E900004E6
:100E110012012DC394184007900004E412018E9032
:100E2100000512012DC3943C4007900005E4120116
:100E31008E90000612012DC3943C4007900005E4FA
:030E410012018E0D
:010E4400228B
:101911009000A1EBF0A3EAF0A3E9F09000AA74FF14
:10192100F0A3741CF0A374BAF09000A1E0FBA3E053
:10193100FAA3E0F990000312012D9000ADF09000A0
:101941000412012D9000AEF090000512012D9000BF
:10195100AFF090000612012D9000B0F09000A4E0CD
:0A196100FBA3E0FAA3E0F90206512F
:101ABB009000A1EBF0A3EAF0A3E9F09000AA74FF69
:101ACB00F0A3741CF0A374CFF09000A1E0FBA3E093
:101ADB00FAA3E0F91201149000ADF090000112018D
:101AEB002D9000AEF090000212012D9000AFF090FF
:0D1AFB0000A4E0FBA3E0FAA3E0F90206510D
:0610950004190000000038
:011E8400223B
:101E3200438E807589F3758A9A758CA9C28DD28C6E
:031E4200D2A92200
:091E6300AF1CAE1BAD1AAC192234
:03000B00021D894A
:101D8900C0E0C0D0E51C2401F51CE4351BF51BE4BB
:101D9900351AF51AE43519F519C28DD0D0D0E032CB
:101DDE00E4F5B275B178F592F59190FE1174E0F0DC
:091DEE0090FE137478F0D2AF22CC
:061D68009000A41204200B
:101D6E0075141D7515B7D515FDD514FA9000A4740C
:0A1D7E00FF1203EDEC4D4E4F70E62E
:011D88002238
:061DA9009000BD120420B1
:101DAF0000751405D514FD9000BD74FF1203EDEC02
:051DBF004D4E4F70EBDA
:011DC40022FC
:030000000215DB0B
:0C15DB00787FE4F6D8FD758179021622B5
:10001E00E709F608DFFA8046E709F208DFFA803EC4
:10002E0088828C83E709F0A3DFFA8032E309F608B1
:10003E00DFFA8078E309F208DFFA807088828C8319
:10004E00E309F0A3DFFA806489828A83E0A3F608CD
:10005E00DFFA805889828A83E0A3F208DFFA804CA7
:10006E0080D280FA80C680D4806980F2803380107E
:10007E0080A680EA809A80A880DA80E280CA8033E7
:10008E0089828A83ECFAE493A3C8C582C8CCC5835F
:10009E00CCF0A3C8C582C8CCC583CCDFE9DEE7802F
:1000AE000D89828A83E493A3F608DFF9ECFAA9F0AE
:1000BE00EDFB2289828A83ECFAE0A3C8C582C8CC04
:1000CE00C583CCF0A3C8C582C8CCC583CCDFEADE1D
:1000DE00E880DB89828A83E493A3F208DFF980CC7F
:1000EE0088F0EF60010E4E60C388F0ED2402B40478
:1000FE000050B9F582EB2402B4040050AF2323451F
:06010E00822390006E73D5
:10011400BB010689828A83E0225002E722BBFE02E9
:09012400E32289828A83E493221C
:10012D00BB010CE58229F582E5833AF583E0225087
:10013D0006E92582F8E622BBFE06E92582F8E222D1
:0D014D00E58229F582E5833AF583E49322EB
:10015A00BB010989828A83F8E028F022500327F735
:10016A0022BBFE05F8E328F3228A838982F8E49306
:02017A00282239
:10017C00BB010689828A83F0225002F722BBFE0162
:02018C00F3225C
:10018E00F8BB010DE58229F582E5833AF583E8F0A7
:10019E00225006E92582C8F622BBFE05E92582C853
:0201AE00F2223B
:1001B000EF8DF0A4A8F0CF8CF0A428CE8DF0A42E63
:0201C000FE221D
:1001C200BC000BBE0029EF8DF084FFADF022E4CC21
:1001D200F875F008EF2FFFEE33FEEC33FCEE9DECEA
:1001E200984005FCEE9DFE0FD5F0E9E4CEFD22ED30
:1001F200F8F5F0EE8420D21CFEADF075F008EF2F7A
:10020200FFED33FD4007985006D5F0F222C398FD6A
:050212000FD5F0EA2207
:10021700C2D5EC30E709B2D5E4C39DFDE49CFCEE02
:1002270030E715B2D5E4C39FFFE49EFE1201C2C3B7
:10023700E49DFDE49CFC80031201C230D507C3E4B2
:060247009FFFE49EFE2271
:10024D00A3F8E0C5F025F0F0E58215827002158364
:06025D00E0C838F0E822C1
:10026300E88FF0A4CC8BF0A42CFCE98EF0A42CFC3A
:100273008AF0EDA42CFCEA8EF0A4CDA8F08BF0A4B8
:100283002DCC3825F0FDE98FF0A42CCD35F0FCEB17
:100293008EF0A4FEA9F0EB8FF0A4CFC5F02ECD39DC
:0F02A300FEE43CFCEAA42DCE35F0FDE43CFC2249
:1002B20075F008758200EF2FFFEE33FECD33CDCC03
:1002C20033CCC58233C5829BED9AEC99E582984086
:1002D2000CF582EE9BFEED9AFDEC99FC0FD5F0D663
:1002E200E4CEFBE4CDFAE4CCF9A88222B800C1B98D
:1002F2000059BA002DEC8BF084CFCECDFCE5F0CBCB
:10030200F97818EF2FFFEE33FEED33FDEC33FCEB03
:1003120033FB10D703994004EB99FB0FD8E5E4F9BE
:10032200FA227818EF2FFFEE33FEED33FDEC33FCAB
:10033200C933C910D7059BE99A4007EC9BFCE99A9F
:10034200F90FD8E0E4C9FAE4CCFB2275F010EF2FE4
:10035200FFEE33FEED33FDCC33CCC833C810D707E4
:100362009BEC9AE899400AED9BFDEC9AFCE899F81F
:0E0372000FD5F0DAE4CDFBE4CCFAE4C8F922B2
:101B0800C2D5E830E70FB2D5E4C39BFBE49AFAE408
:101B180099F9E498F8EC30E717B2D5121B3E120297
:101B2800EEE4C39BFBE49AFAE499F9E498F880039D
:101B38001202EE30D50DE4C39FFFE49EFEE49DFD46
:041B4800E49CFC22FB
:10038000EB9FF5F0EA9E42F0E99D42F0E89C45F0D3
:01039000224A
:10039100E8600FECC313FCED13FDEE13FEEF13FF4A
:0303A100D8F1226E
:1003A400E86010ECA2E713FCED13FDEE13FEEF136F
:0403B400FFD8F0225C
:1003B800E8600FEFC333FFEE33FEED33FDEC33FCA3
:0303C800D8F12247
:1003CB00BB010789828A8302057E5005E9F8020585
:1003DB0072BBFE05E9F802058A89828A83020596BB
:1003EB007401FF3395E0FEFDFCA3A3A3E02FFFF008
:1003FB00E582158270021583E03EFEF0E5821582E0
:10040B0070021583E03DFDF0E582158270021583C5
:05041B00E03CFCF022B2
:0C042000ECF0A3EDF0A3EEF0A3EFF0224F
:10042C00A8828583F0D083D0821204431204431235
:10043C000443120443E473E493A3C583C5F0C5835A
:10044C00C8C582C8F0A3C583C5F0C583C8C582C81A
:01045C00227D
:1005EC00E51424AAF582E43400F583E00514229086
:1005FC0000A73007039000AAE475F0011205A602CB
:10060C0001142000E97F2ED2008018EF540F2490A3
:10061C00D43440D4FF30040BEF24BFB41A00500381
:10062C002461FFE515600215150518E51870020523
:10063C001730070E9000A7E475F0011205A6EF0223
:10064C00017C021C937403D2078003E4C207F514E7
:10065C009000A71205BDE4F515F517F518E5156022
:10066C00077F2012062F80F57516FFC201C200C24B
:10067C0002C203C205C206C2081205FBFF700D3090
:10068C0007057F00120640AF18AE1722B4255FC2D3
:10069C00D5C2041205FBFF24D0B40A00501A75F021
:1006AC000A781530D50508B6FF0106C6A426F62033
:1006BC00D5047002D20380D924CFB41A00EF5004B1
:1006CC00C2E5D204020841D20180C6D20080C0D259
:1006DC000280BCD2D580BAD20580B47F2012062FFE
:1006EC002002077401B5150040F11205ECFF12064B
:1006FC002F020669D208D20680951205ECFB120572
:10070C00ECFA1205ECF94A4B700679127A097BFF68
:10071C0020022EE515602A7E008E82758300120160
:10072C002D60060EEE651670F0C2D5EBC0E0EAC087
:10073C00E0E9C0E0EE120888D0E0F9D0E0FAD0E0B1
:10074C00FB120114FF60AAEBC0E0EAC0E0E9C0E0D4
:10075C0012062FD0E02401F9D0E03400FAD0E0FBEF
:10076C00E5160460DCD516D980877BFF7A0879847E
:10077C00D202809C791080027908C206C2088008D7
:10078C00D2D5790A8004790AC2D5E516047002F52F
:10079C0016E4FAFDFEFF1205ECFC7B082001131297
:1007AC0005ECFD7B1030000A1205ECFE1205ECFF87
:1007BC007B20EC3382D592D55013C3E43000069FD6
:1007CC00FFE49EFEE42001039DFDE49CFCE4CBF8D9
:1007DC00C201EC700CCFCECDCCE824F8F870F380CD
:1007EC0017C3EF33FFEE33FEED33FDEC33FCEB338D
:1007FC00FB994002FB0FD8E9EB300105F8D0E0C4BF
:10080C0048B201C0E00AEC4D4E4F78207B0070C21C
:10081C00EAB5160040BCC0E012088AD0F0D0E02047
:10082C000104C4C0E0C4B201C0F0120618D0F0D567
:10083C00F0EB0206691205C607065307805806D767
:10084C004C06D34207844F078C44078C4906EC4373
:08085C00079255077646077666
:100864004507764709325006DB2D06DF2E07022B9B
:1008740006E323070020091B2A069B48000006FA0A
:100884003F3F3F00790AA2D5200314300509B9106F
:10089400020404B9080104A2D52006025001042070
:1008A40002689202B515005034C0E07F203003196D
:1008B4007F30A20272067205500F1208E1C202C212
:1008C40006C205C2087F30800F300503E9C0E0127C
:1008D400062F300503D0E0F9D0E0B515CC3005176C
:1008E4007F30B9100C12062F7F583004077F7880B0
:1008F40003B9080312062F3002057F2D02062F7F4D
:10090400202008F87F2B2006F322920280CF286E45
:10091400756C6C2900D2011205EC3001F8C2017823
:100924001530D50108F602069B2D5043495812058F
:10093400EC2403B405004001E490092D9312062031
:0D094400743A120620D203751504020780D4
:10045D00E709F60870FA8046E709F20870FA803E5F
:10046D0088828C83E709F0A370FA807EE309F60891
:10047D0070FA8076E309F20870FA806E88828C83B8
:10048D00E309F0A370FA806289828A83E0A3F608FB
:10049D0070FA805689828A83E0A3F20870FA804A46
:1004AD0080D280FA80C680D4806580F28031801041
:1004BD0080A680EA809A80A880DA80E280CA8031A6
:1004CD0089828A83ECFAE493A3C8C582C8CCC5831C
:1004DD00CCF0A3C8C582C8CCC583CC70E9800D898A
:1004ED00828A83E493A3F60870F9ECFAA9F0EDFB88
:1004FD002289828A83ECFAE0A3C8C582C8CCC58361
:10050D00CCF0A3C8C582C8CCC583CC70EA80DD8988
:10051D00828A83E493A3F20870F980CE88F0ED24EB
:10052D0002B4040050C4F582EB2402B4040050BAA6
:09053D0023234582239004AD73D1
:101DF700E4FFFE120114600C0FEF70010E09E97089
:051E0700F20A80EF2249
:10054600EF4E6012EF60010EEDBB010B89828A83CC
:10055600F0A3DFFCDEFA2289F05007F709DFFCA9D9
:0C056600F022BBFEFCF309DFFCA9F02230
:1015E700020951E493A3F8E493A34003F68001F2C0
:1015F70008DFF48029E493A3F85407240CC8C33305
:10160700C4540F4420C8834004F456800146F6DFD3
:10161700E4800B0102040810204080900F7AE47EDA
:10162700019360BCA3FF543F30E509541FFEE493C8
:10163700A360010ECF54C025E060A840B8E493A38F
:10164700FAE493A3F8E493A3C8C582C8CAC583CABA
:10165700F0A3C8C582C8CAC583CADFE9DEE780BE72
:01109B000054
:0C057200E6FC08E6FD08E6FE08E6FF22B5
:0C057E00E0FCA3E0FDA3E0FEA3E0FF22F0
:0C058A00E2FC08E2FD08E2FE08E2FF22AD
:10059600E493FC740193FD740293FE740393FF22AB
:1005A600F8E0FBA3A3E0F925F0F0E58215827002DE
:0705B6001583E0FA38F02282
:0905BD00EBF0A3EAF0A3E9F0223F
:1005C600D083D082F8E4937012740193700DA3A3C4
:1005D60093F8740193F5828883E4737402936860D8
:0605E600EFA3A3A380DFD8
:101C9300EFB40A07740D121C9E740A309811A899A8
:101CA300B8130CC2983098FDA899C298B811F630B1
:071CB30099FDC299F5992289
:00000001FF
