:100E690041010907410101034101000141010A0052
:080E79004100FF004100FD00F3
:10006E0043BA801219FF121C45121BE8121D1B12F7
:10007E001B60900109E0FF7E00121C979000FE7439
:10008E0001F012000E121CE4C3EF950BFFEE950A61
:10009E00FEED9509FDEC9508FCE47B05FAF9F8D325
:1000AE001203B85052900101E0FFE4FCFDFEC004C3
:1000BE00C005C006C0079000E112043D000000001C
:1000CE009000E512043D000000039000E912043D8B
:1000DE00000000009000ED12043D000000FFD0076C
:1000EE00D006D005D004120D6612157D121CE48FB9
:1000FE000B8E0A8D098C08121CE4C3EF9511FFEECE
:10010E009510FEED950FFDEC950EFCE47BF47A0157
:10011E00F9F8D31203B840030200939000FEE0B446
:10012E000303121C6A121CE48F118E108D0F8C0E9D
:03013E0002009329
:0F1C6A007E007F097D007B007A00791202046EF4
:061D03009000AEEFF0229B
:03006B000217C5B4
:0F17C500C0E0C083C082C0D075D000C006C0078E
:1017D40090FD13E0FF6025E4F0EF30E3047E018028
:1017E40016EF30E4047E02800EEF30E5047E0380C1
:0C17F40006EF30E6027E04AF06121D0373
:0D180000D007D006D0D0D082D083D0E03207
:10000E00E4F50CF50D438E0475D73375D653438E38
:05001E001043AF0422B5
:04006600538EEF22A4
:0300630002110483
:10110400C0E0C0F0C083C082C0D075D000C000C0B1
:1011140001C002C003C004C005C006C007050DE538
:101124000D7002050CC394FAE50C940050030211EF
:10113400B27B017A017902120C5A7E007F097D008C
:101144007B007A00791212046E9000FEE0B401294B
:101154009000FDE070047F0180027F009000FDEFAD
:10116400F09000B2E4F0A37400F0A37412F07B01D9
:101174007A0179021215D880219000FEE0B4021A97
:101184009000FDE4F09000B2F0A37400F0A3741298
:10119400F07B017A01790212172F7B007A00791211
:1011A4009000FDE0FD120B40750C00750D00D0079A
:1011B400D006D005D004D003D002D001D000D0D0C6
:0911C400D082D083D0F0D0E032DB
:100E81004100950141000005580096000000000056
:100E91000000000000000000000000000000000051
:100EA10000000060940001003333000020100000B6
:100EB100E1210000E1300000E2100000C330000039
:100EC100C331000021100000E3310000E3300000D5
:100ED10008040000E3110000A93400000321000010
:100EE10029340000C3210000C3010000C331000008
:100EF100E21100000924000008240000520900004A
:100F010002210000361100002619000023310000E3
:100F1100E101000023390000E1090000C3300000B5
:100F2100090400002230000024180000221B0000E8
:0B0F3100140A0000140400001120044A
:1019920090FECCE4F090FEC97468F090FECC741016
:1019A200F090FED7E4F0A374C8F090FED27403F076
:1019B200A374E8F090FEB17404F090FEDD7480F040
:0819C20090FEC0E04481F02218
:0D1CA50090FEC0E054FEF090FEB1E4F0228D
:101B6000D2911219927F061219CAE4FF1219199024
:0C1B70000000E0FF7E00121C970200261F
:08000300C291121CA5020026A7
:100026007E007F187D007B017A00799612046E7B34
:10003600017A0079969000E1E4F0A37418F0E4FFE9
:0300460002126241
:08189800900132EEF0A3EFF025
:1018A000AF05120F4F1203DC78101203C9900134F8
:1018B000EFF01203DC78081203C9900135EFF01243
:1018C00003DC900136EFF07B017A0179349000E17E
:0B18D000E4F0A37403F0E4FF021262D6
:06152200900125120431C6
:10152800900125E0FCA3E0FDA3E0FEA3E0FF781016
:101538001203C9A3EFF0900125E0FCA3E0FDA3E0AE
:10154800FEA3E0FF78081203C990012AEFF090018A
:1015580025E0FCA3E0FDA3E0FEA3E0FF90012BEF54
:10156800F07B017A0179299000E1E4F0A37403F09B
:05157800E4FF02126215
:100B40009000B2EDF09000AFEBF0A3EAF0A3E9F073
:100B500012004EE49000B3F0A3F0A3F0A3F0D3EFA3
:100B60009409EE940040067E007F0980009000B753
:100B7000EEF0A3EFF07E007F187D007B017A007914
:100B80009612046EE49000B5F0A3F09000B7E0FE7A
:100B9000A3E0FF9000B5E0FCA3E0FDC39FEC9E4006
:100BA00003020C439000AFE0FBA3E0FAA3E0F98D51
:0A0BB000828C83120255607A60788F
:100BBA009000B5E0FEA3E0F5828E83120255FF1283
:100BCA000F4F9000B9EBF0A3EAF0A3E9F01203DCAF
:100BDA0078101203C9E49000B375F001120353FCB4
:100BEA00749625F0F58274003CF583EFF01203DC6D
:100BFA0078081203C9E49000B375F001120353FC9C
:100C0A00749625F0F58274003CF583EFF01203DC4C
:100C1A00E49000B375F001120353FC749625F0F5C5
:080C2A008274003CF583EFF039
:100C32009000B6E004F070069000B5E004F0020BFC
:100C42008B7B017A0079969000E1E4F0A37418F0AE
:070C5200E4FF1212627F01B2
:010C59002278
:0D1CB200900095EFF0900000E0FD0218DBBF
:0E1C9700900000EFF0FD900095E0FF0218DBDA
:060D66009000DD120431D3
:100D6C009000E9E0F8A3E0F9A3E0FAA3E0FBA3E02C
:100D7C00FCA3E0FDA3E0FEA3E0C39BFFEE9AFEED17
:100D8C0099FDEC98FCA31204319000E1E0F8A3E08B
:100D9C00F9A3E0FAA3E0FBA3E0FCA3E0FDA3E0FED3
:100DAC00A3E0C39BFFEE9AFEED99FDEC98FC90003E
:100DBC00F51204319000E1E0F8A3E0F9A3E0FAA306
:100DCC00E0FB9000DDE0FCA3E0FDA3E0FEA3E0C3AC
:100DDC009BFFEE9AFEED99FDEC98FC9000F9120445
:100DEC0031E47B02FAF9F89000F5E0FCA3E0FDA3F6
:100DFC00E0FEA3E0FF121854C004C005C006C007F3
:100E0C009000F1E0FCA3E0FDA3E0FEA3E0FF900066
:100E1C00F9E0F8A3E0F9A3E0FAA3E0FB120369D030
:100E2C0003D002D001D000EF2BFFEE3AFEED39FDDE
:100E3C00EC38FC9000F5E0F8A3E0F9A3E0FAA3E0AD
:100E4C00FB1218549000E9E0F8A3E0F9A3E0FAA330
:0C0E5C00E02FFFEA3EFEE93DFDE83CFC13
:010E68002267
:100F4F009000BCEFF0BF200302102C9000BCE0FF1C
:100F5F00C3648094B04041D3EF648094BA5039E0B9
:100F6F003395E0FEFDFCC004C005C006C00790002D
:100F7F00E112043D000000309000E512043D000036
:100F8F00003A9000E912043D000000009000ED12BD
:100F9F00043D0000000A804B9000BCE0FFC364805A
:100FAF0094C1405ED3EF648094DA5056E03395E0FD
:100FBF00FEFDFCC004C005C006C0079000E112048E
:100FCF003D000000419000E512043D0000005A90E2
:100FDF0000E912043D0000000B9000ED12043D00EB
:100FEF00000024D007D006D005D004120D66E47B94
:100FFF0004FAF9F812036974012FF974003EFA7BB1
:10100F0001229000BCE0FFC3648094E1400FD3EF56
:10101F00648094FA5007EF24E0FF020F4F7B007AB1
:04102F000079002222
:0513EB009000E5EFF0A9
:1013F000E4A3F0A3F0C2909000E6F0A3F07F0A7E91
:10140000007D007C00121B7C9000E5E030E004D2FF
:10141000B78002C2B77F0A7E007D007C00121B7C71
:10142000D2907F0A7E007D007C00121B7CC29090CF
:1014300000E5E0C313F09000E7E004F070069000D0
:10144000E6E004F0C39000E7E094089000E6E09442
:031450000040AAAF
:011453002276
:101919009000DD7440F0EF6004E04404F0D2947F5D
:101929000A7E007D007C00121B7CC2947F0A7E0027
:101939007D007C00121B7C9000DDE0FF1213EB7F21
:0C1949000A7E007D007C00121B7CD29402
:01195500226F
:1019CA009000DDEFF0D2947F0A7E007D007C001249
:1019DA001B7CC2947F0A7E007D007C00121B7C90D7
:1019EA0000DDE0FF1213EB7F0A7E007D007C00120F
:0519FA001B7CD29422C9
:1018DB00ED44809000DDF0EF6004E04408F0D2941A
:1018EB007F0A7E007D007C00121B7CC2947F0A7EE7
:1018FB00007D007C00121B7C9000DDE0FF1213EBDF
:0D190B007F0A7E007D007C00121B7CD294C0
:0119180022AC
:0E1262009000DDEFF0A3EBF0A3EAF0A3E9F0BB
:10127000E49000E3F0A3F0D2947F0AFEFDFC121B81
:101280007CC2947F0A7E007D007C00121B7C900053
:10129000DDE044C0FF1213EB7F0A7E007D007C007E
:1012A000121B7CE49000E3F0A3F09000E1E0FEA3C9
:1012B000E0FFA3E0FCA3E0FDC39FEC9E502690005E
:1012C000DEE0FBA3E0FAA3E0F98D828C83120255E5
:1012D000FF1213EB9000E4E004F070CE9000E3E026
:1012E00004F080C67F0A7E007D007C00121B7CD249
:0112F0009469
:0112F10022DA
:101A5C002025303262642530326264253032626473
:101A6C002530326264003230256264253032626483
:061A7C0025303262640017
:071CF500439140439240229D
:071CFC004391405392BF2207
:0F1C790043912043922043918053927F021CF5A8
:0B1A2F00EFF0A3EBF0A3EAF0A3E9F056
:101A3A00121CF5D296D2957F047E007D007C00129E
:101A4A001B7CC2967F047E007D007C00121B7CC238
:021A5A009522D3
:101AC600121CF5C295C296D2957F047E007D007CDD
:101AD60000121B7CD2967F047E007D007C00021BD8
:011AE6007C83
:101A8200121CF5D296C2957F047E007D007C001266
:101A92001B7CD2957F047E007D007C00121B7CC2E1
:021AA20095228B
:101AA400121CF5C296C2957F047E007D007C001254
:101AB4001B7CD2957F047E007D007C00121B7CC2BF
:021AC400952269
:10137E00E49000C1F0A37403F0D2967F017E007D4D
:10138E00007C00121B7C121CFC7F017E007D007C09
:10139E0000121B7CD2957F017E007D007C00121B0B
:1013AE007C30961C9000C2E0D3940040137F017EE7
:1013BE00007D007C00121B7C9000C2E014F080E1E6
:1013CE009000C2E060069000C17401F09000C1E090
:0C13DE007003121AC6C2959000C1E0FF17
:0113EA0022E0
:051689009000BFEFF02E
:10168E00121CF5C2957F047E007D007C00121B7C2F
:10169E00E49000C0F09000BFE030E704D2968002E4
:1016AE00C2967F047E007D007C00121B7CD2957F4B
:1016BE00047E007D007C00121B7CC2959000BFE072
:1016CE00FF25E0F0A3E004F0E0C3940840C7021346
:0116DE007E8D
:051632009000BFEFF085
:10163700E4A3F0121CFCA3F0C2957F047E007D009A
:101647007C00121B7CD2959000C0E025E0F030961C
:1016570004E04401F07F017E007D007C00121B7CCA
:101667009000C1E004F0E0C3940840CCC29590001C
:10167700BFE06005121AA48003121A829000C0E02E
:01168700FF63
:01168800223F
:031454009000B94C
:10145700121A2F7F64121689EF60589000B9E0FFC7
:10146700121689EF604D121A3A7F65121689EF60DE
:1014770042E49000BEF09000BDE0FFA3E0FEC39FF2
:10148700502EEF14B506047F0080027F011216323A
:101497009000BAE0FBA3E0FAA3E0F99000BEE0F504
:1014A70082758300EF1202949000BEE004F080C6BC
:0314B700121AC640
:0114BA00220F
:0316DF0090012C4B
:1016E200121A2F7F64121689EF604190012CE0FFDD
:1016F200121689EF6036E4900131F0900130E0FF7C
:10170200A3E0FEC39F502290012DE0FBA3E0FAA3C9
:10171200E0F98E82758300120255FF121689EF607E
:0C1722000B900131E004F080D2121AC6D6
:01172E002298
:031D1B00021C792E
:101B2600121C79E490013FF0A37440F07B017A0126
:0D1B3600793F9001307402F07FE00216DF6D
:101C3200EF75F00A84C454F0FEEF75F00A84E5F003
:031C42004EFF2230
:0F1C8800EFC4540F75F00AA4FEEF540F2EFF2285
:0214BB00AC077C
:1014BD00121C79900111E0FF121C32A3EFF0900184
:1014CD0010E0FF121C32900113EFF090010FE0FFBE
:1014DD00121C32900114EFF090010EE0FFF8E408B9
:1014ED008002C313D8FC4401900115F0AF03121C08
:1014FD0032A3EFF0AF05121C32A3EFF0AF04121CB4
:10150D0032A3EFF07B017A0179129001307407F06C
:05151D00E4FF0216DFEF
:0B0C5A009000AFEBF0A3EAF0A3E9F07C
:100C6500121C797B017A0079B29000BD7407F0E41B
:100C7500FF1214549000B2E0FF121C889000AFE000
:100C8500FBA3E0FAA3E0F9900006EF1202949000AE
:100C9500B3E0FF121C889000AFE0FBA3E0FAA3E0ED
:100CA500F9900005EF1202949000B4E0FF121C8841
:100CB5009000AFE0FBA3E0FAA3E0F9900004EF1287
:100CC50002949000B6E0FF121C889000AFE0FBA3F1
:100CD500E0FAA3E0F9900002EF1202949000B7E069
:100CE500FF121C889000AFE0FBA3E0FAA3E0F990A7
:100CF5000001EF1202949000B8E0FF121C889000EA
:100D0500AFE0FBA3E0FAA3E0F9EF1202829000AF97
:100D1500E0FBA3E0FAA3E0F99000011202552401DB
:100D2500FFE433FE7C007D0D1202B67D0512031D26
:100D350012023CFD1313543F2DFDE433CD2FFFED7F
:100D45003EFE9000021202557C002FFFEC3ECF24A0
:100D5500DCCF34FFFE7D0712031D900003ED020278
:010D650094F9
:1015D8009000AFEBF0A3EAF0A3E9F09000B874FF35
:1015E800F0A3741AF0A3745CF09000AFE0FBA3E0E2
:1015F800FAA3E0F99000031202559000BBF09000A6
:10160800041202559000BCF090000512025590009B
:10161800BDF09000061202559000BEF09000B2E0B6
:0A162800FBA3E0FAA3E0F902064775
:10172F009000AFEBF0A3EAF0A3E9F09000B874FFDC
:10173F00F0A3741AF0A37472F09000AFE0FBA3E073
:10174F00FAA3E0F912023C9000BBF09000011202E4
:10175F00559000BCF09000021202559000BDF09021
:0D176F0000B2E0FBA3E0FAA3E0F902064798
:0C1CCC00405354434953502300FF1CCCEC
:0C0F3C00041B00000000C109410141003D
:101BE800759850438E40538EFE53890F758BD07570
:091BF8008DFFC2ABD28ED2AC22EB
:030023000211CDFA
:1011CD00C0E0C083C082C0D075D000C000C001C0D7
:0511DD0002C003C00781
:1011E200309904C299C209309863C298AF99901C91
:1011F200D5E493FB740193FA740293F9900141E0F0
:10120200F582758300120255B50719900141E00479
:10121200F0900141E0F582758300120255702E753F
:10122200C7608029900141E004F0901CD5E493FB53
:10123200740193FA740293F9900141E0F582758387
:0D12420000120255B50706900141E004F0CE
:10124F00D007D003D002D001D000D0D0D082D0832D
:03125F00D0E032AA
:101C010012023C60132009FDD20912023CF59974BD
:091C11000129F9E43AFA80E82205
:081CED002009FDD2098F9922A4
:101C4500438E807589F3758A9A758CA9C28DD28C5D
:031C5500D2A922EF
:091CE400AF1EAE1DAD1CAC1B22AD
:03000B00021B08CD
:101B0800C0E0C0D0E51E2401F51EE4351DF51DE436
:0E1B1800351CF51CE4351BF51BD0D0D0E03297
:1019FF00E4F5B2F5B1F592F59190FE1174E0F04374
:101A0F00B27843B17890FE137478F043920890FD4A
:101A1F0023E4F090FD33F090FD037478F0D2AF2201
:061AE700900137120431EA
:101AED00752E1D752FB7D52FFDD52EFA9001377494
:0A1AFD00FF1203FEEC4D4E4F70E6A1
:011B070022BB
:061B7C009000E8120431A4
:101B820000752D05D52DFD9000E874FF1203FEECC3
:051B92004D4E4F70EB09
:011B9700222B
:060F480043011C0064FFE0
:03004B00021D098A
:061D090075CDC0C20A32D4
:0C1CD80075CDC075CED443AF02C293227C
:061D0F00E4F5CEC29322B0
:061D1500200AFD8FCF2221
:10177C007D067C00121CD8E4FEEEC39DE49C503622
:10178C0074222EF8E69000E4F0E4FB9000E4E030E4
:10179C00E706A374FCF080069000E574C0F090009E
:1017AC00E5E0FF121D159000E4E0FF25E0F00BEBE7
:0317BC00B408D896
:0617BF000E80C3021D0FA5
:10195600EFC394025035EF75F003A4241FF582E41B
:101966003401F583EDF0EF75F003A42420F582E44D
:101976003401F583EBF09000E1E0FEEF75F003A48F
:0C1986002421F582E43401F583EEF02208
:051033009000DEEFF06B
:10103800E4A3F0A3F0FE7F06FDFB7A0079221204F8
:101048006EE49000E0F09000E0E0FFC394024003FB
:031058000210F68D
:10105B00EF75F003A4241FF9740135F0FA7B01A39B
:10106B00EBF0A3EAF0A3E9F0900001120255FF7E2A
:10107B00009000DEE0FD7C001202B67DFF1202C87C
:10108B00A3E0FE04F074222EF8A6079000E1E0FB2B
:10109B00A3E0FAA3E0F912023CFF7E009000DEE031
:1010AB00FD7C001202B67DFF1202C8A3E0FE04F025
:1010BB0074222EF8A6079000E1E0FBA3E0FAA3E070
:1010CB00F9900002120255FF7E009000DEE0FD7CDD
:1010DB00001202B67DFF1202C8A3E0FE04F07422D8
:0410EB002EF8A6072E
:1010EF00A3E004F002104E12177C7F647E007D0097
:0510FF007C00021B7CD7
:10180D00E490013BF0F090013BE0FFC394025032B5
:10181D00EF75F003A4241FF9740135F0FA7B01A3D1
:10182D00EBF0A3EAF0A3E9F0900002E41202949029
:0A183D000001E4120294E41202829A
:0D18470090013BE004F080C4E4FF02103388
:05157D009000DDEFF01D
:1015820078DE7C007D017B017A01791C7E007F037D
:1015920012021612094778197C017D017E007F0331
:1015A200120216900119E0FDA3E0FBA3E09000E116
:1015B200F0E4FF121956900119E0FDA3E0FBA3E04D
:1015C2009000E1F00F12195690011CE004F0900017
:0615D200DDE0FF02103312
:071BB4009000E6E0FF7DAAAE
:101BBB00AC07ED2401FFE433FEAD047C001202B64A
:031BCB00EEFF2208
:101B4300AB05AA077C007E001202B6EEFFEA60072F
:0D1B5300EB60047E0180027E00EE2FFF2279
:101C58009000EDEFF0A3EDF0A3EBF07B017A0079B3
:011C6800ED8E
:011C69002258
:100947009000E17401F0E4A3F0A3F0A3F09000DEBF
:10095700E0FBA3E09000E5F09000E0E0F9EB541F26
:1009670033333354F8FF9000E6F07D55121BBBAAD2
:1009770007EB30E703020A0E20E64020E50AC374BE
:10098700FF9AA3F0A3EA80699000E1E0600E90006F
:10099700E774ABF0EA2455A3F0E4A3F09000E2E09B
:0509A7007003020A6666
:1009AC00121BB49000EAEFF0FEEA24AA9000E7F0E4
:0409BC00EE2455A32D
:0C09C0008036EB20E5389000E1E0601884
:1009CC00121BB49000EAEFF0C374AB9F9000E7F0F9
:0809DC00EA24AAA3F0E4A3F051
:1009E4009000E2E0607C9000E6E0FFC374FF9FA308
:1009F400F0A374FFF0E4A3F08068E49000E7F0C390
:100A040074FF9AA3F0A3EAF08058EB20E63120E5C6
:010A140021C0
:100A1500121BB49000EAEFF0E49000E7F09000EAD2
:0F0A2500E0FFC374AB9F9000E8F0EF2455A3F0FF
:100A340080309000E7EAF0E4A3F0C374FF8020EB79
:100A440020E50FEA24559000E7F0E4A3F0C374AB6B
:100A5400800DEA24AA9000E7F0E4A3F0C374559A49
:100A6400A3F09000E3E060079000E8E0C313F09087
:100A740000E4E0FD600A9000E8E0FF121B43EFF0A1
:100A84009000E5E0FFF4606DEF70109000E774FFF4
:0B0A9400F09000E9F09000E8F0805ABC
:100A9F009000E5E0FFC374FF9FFF9000EAF0FD12A6
:100AAF001B43EFF0C374FF9FA3F0FD9000E7E0FF3F
:100ABF00121BBBEFF0A3E0FF9000EBE0FD121BBB9E
:100ACF009000E8EFF0A3E0FF9000EBE0FD121BBBFE
:100ADF009000E9EFF0A3E0FF9000ECF09000E7E06A
:0A0AEF002FF0A3E02FF0A3E02FF09A
:100AF900E9F46035AF01AD01121B43A907E9900084
:100B0900E77007F0A3F0A3F0801FE0FFAD01121B0F
:100B1900BBEFF0A3E0FFAD01121BBBEFF0A3E0FFB9
:100B2900AE01AD06121BBBEFF09000E7E0FFA3E0BA
:070B3900FDA3E0FB021C58C4
:0301430002006B4C
:0D1CBF00E4F5C7F5C5F5C675C380F5C42270
:101BCE0075C78075F51675C5018FC4EEF5C375C65C
:0A1BDE005A75C6A500AFC2021CBF75
:101C1A0075C78075F51675C5038FC4EEF5C375C60D
:081C2A005A75C6A500021CBF9B
:101B980075C78075F51675C5028FC4EEF5C3AF0518
:0C1BA8008FC275C65A75C6A500021CBF8E
:030000000212F2F7
:0C12F200787FE4F6D8FD75812F021339D7
:10014600E709F608DFFA8046E709F208DFFA803E9B
:1001560088828C83E709F0A3DFFA8032E309F60888
:10016600DFFA8078E309F208DFFA807088828C83F0
:10017600E309F0A3DFFA806489828A83E0A3F608A4
:10018600DFFA805889828A83E0A3F208DFFA804C7E
:1001960080D280FA80C680D4806980F28033801055
:1001A60080A680EA809A80A880DA80E280CA8033BE
:1001B60089828A83ECFAE493A3C8C582C8CCC58336
:1001C600CCF0A3C8C582C8CCC583CCDFE9DEE78006
:1001D6000D89828A83E493A3F608DFF9ECFAA9F085
:1001E600EDFB2289828A83ECFAE0A3C8C582C8CCDB
:1001F600C583CCF0A3C8C582C8CCC583CCDFEADEF4
:10020600E880DB89828A83E493A3F208DFF980CC55
:1002160088F0EF60010E4E60C388F0ED2402B4044E
:100226000050B9F582EB2402B4040050AF232345F5
:0602360082239001967383
:10023C00BB010689828A83E0225002E722BBFE02C0
:09024C00E32289828A83E49322F3
:10025500BB010CE58229F582E5833AF583E022505E
:1002650006E92582F8E622BBFE06E92582F8E222A8
:0D027500E58229F582E5833AF583E49322C2
:10028200BB010689828A83F0225002F722BBFE015B
:02029200F32255
:10029400F8BB010DE58229F582E5833AF583E8F0A0
:1002A400225006E92582C8F622BBFE05E92582C84C
:0202B400F22234
:1002B600EF8DF0A4A8F0CF8CF0A428CE8DF0A42E5C
:0202C600FE2216
:1002C800BC000BBE0029EF8DF084FFADF022E4CC1A
:1002D800F875F008EF2FFFEE33FEEC33FCEE9DECE3
:1002E800984005FCEE9DFE0FD5F0E9E4CEFD22ED29
:1002F800F8F5F0EE8420D21CFEADF075F008EF2F73
:10030800FFED33FD4007985006D5F0F222C398FD63
:050318000FD5F0EA2200
:10031D00C2D5EC30E709B2D5E4C39DFDE49CFCEEFB
:10032D0030E715B2D5E4C39FFFE49EFE1202C8C3A9
:10033D00E49DFDE49CFC80031202C830D507C3E4A4
:06034D009FFFE49EFE226A
:10035300A3F8E0C5F025F0F0E5821582700215835D
:06036300E0C838F0E822BA
:10036900E88FF0A4CC8BF0A42CFCE98EF0A42CFC33
:100379008AF0EDA42CFCEA8EF0A4CDA8F08BF0A4B1
:100389002DCC3825F0FDE98FF0A42CCD35F0FCEB10
:100399008EF0A4FEA9F0EB8FF0A4CFC5F02ECD39D5
:0F03A900FEE43CFCEAA42DCE35F0FDE43CFC2242
:10185400C2D5E830E70FB2D5E4C39BFBE49AFAE4BF
:1018640099F9E498F8EC30E717B2D512188A120403
:10187400D6E4C39BFBE49AFAE499F9E498F880036C
:101884001204D630D50DE4C39FFFE49EFEE49DFD13
:04189400E49CFC22B2
:1003B800EB9FF5F0EA9E42F0E99D42F0E89C45F09B
:0103C8002212
:1003C900E8600FECC313FCED13FDEE13FEEF13FF12
:0303D900D8F12236
:1003DC00BB010789828A830205745005E9F802057E
:1003EC0068BBFE05E9F802058089828A8302058CC8
:1003FC007401FF3395E0FEFDFCA3A3A3E02FFFF0F7
:10040C00E582158270021583E03EFEF0E5821582CE
:10041C0070021583E03DFDF0E582158270021583B4
:05042C00E03CFCF022A1
:0C043100ECF0A3EDF0A3EEF0A3EFF0223E
:10043D00A8828583F0D083D0821204541204541202
:10044D000454120454E473E493A3C583C5F0C58327
:10045D00C8C582C8F0A3C583C5F0C583C8C582C809
:01046D00226C
:1005E200E52824B8F582E43400F583E0052822905A
:1005F20000B53007039000B8E475F00112059C02C3
:10060200023C2000E97F2ED2008018EF540F249084
:10061200D43440D4FF30040BEF24BFB41A0050038B
:100622002461FFE52960021529052CE52C700205DD
:100632002B30070E9000B5E475F00112059CEF0215
:100642000282021CED7403D2078003E4C207F5287C
:100652009000B51205B3E4F529F52BF52CE52960D8
:10066200077F2012062580F5752AFFC201C200C24B
:1006720002C203C205C206C2081205F1FF700D30A4
:1006820007057F00120636AF2CAE2B22B4255FC2BF
:10069200D5C2041205F1FF24D0B40A00501A75F035
:1006A2000A782930D50508B6FF0106C6A426F62029
:1006B200D5047002D20380D924CFB41A00EF5004BB
:1006C200C2E5D204020837D20180C6D20080C0D26D
:1006D2000280BCD2D580BAD20580B47F2012062512
:1006E2002002077401B5290040F11205E2FF12064B
:1006F2002502065FD208D20680951205E2FB12059A
:10070200E2FA1205E2F94A4B700679087A097BFF90
:1007120020022EE529602A7E008E82758300120255
:100722005560060EEE652A70F0C2D5EBC0E0EAC055
:10073200E0E9C0E0EE12087ED0E0F9D0E0FAD0E0C5
:10074200FB12023CFF60AAEBC0E0EAC0E0E9C0E0B5
:10075200120625D0E02401F9D0E03400FAD0E0FB03
:10076200E52A0460DCD52AD980877BFF7A08797A6A
:10077200D202809C791080027908C206C2088008E1
:10078200D2D5790A8004790AC2D5E52A047002F525
:100792002AE4FAFDFEFF1205E2FC7B082001131297
:1007A20005E2FD7B1030000A1205E2FE1205E2FFAF
:1007B2007B20EC3382D592D55013C3E43000069FE0
:1007C200FFE49EFEE42001039DFDE49CFCE4CBF8E3
:1007D200C201EC700CCFCECDCCE824F8F870F380D7
:1007E20017C3EF33FFEE33FEED33FDEC33FCEB3397
:1007F200FB994002FB0FD8E9EB300105F8D0E0C4C9
:1008020048B201C0E00AEC4D4E4F78207B0070C226
:10081200EAB52A0040BCC0E0120880D0F0D0E02047
:100822000104C4C0E0C4B201C0F012060ED0F0D57B
:10083200F0EB02065F1205BC06FC5307765806CDA4
:100842004C06C942077A4F07824407824906E243AF
:08085200078855076C46076C8E
:10085A0045076C4709285006D12D06D52E06F82BD8
:10086A0006D92306F62009112A069148000006F047
:10087A003F3F3F00790AA2D5200314300509B91079
:10088A00020404B9080104A2D5200602500104207A
:10089A0002689202B529005034C0E07F2030031963
:1008AA007F30A20272067205500F1208D7C202C226
:1008BA0006C205C2087F30800F300503E9C0E01286
:1008CA000625300503D0E0F9D0E0B529CC3005176C
:1008DA007F30B9100C1206257F583004077F7880C4
:1008EA0003B908031206253002057F2D0206257F6B
:1008FA00202008F87F2B2006F322920280CF286E50
:10090A00756C6C2900D2011205E23001F8C2017837
:10091A002930D50108F60206912D5043495812058F
:10092A00E22403B405004001E49009239312061659
:0D093A00743A120616D203752904020776DE
:10004E00E4FFFE12023C600C0FEF70010E09E97026
:05005E00F20A80EF2210
:10046E00EF4E6012EF60010EEDBB010B89828A83A5
:10047E00F0A3DFFCDEFA2289F05007F709DFFCA9B2
:0C048E00F022BBFEFCF309DFFCA9F02209
:1012FE0002006EE493A3F8E493A34003F68001F298
:10130E0008DFF48029E493A3F85407240CC8C333F0
:10131E00C4540F4420C8834004F456800146F6DFBF
:10132E00E4800B0102040810204080900E69E47ED8
:10133E00019360BCA3FF543F30E509541FFEE493B4
:10134E00A360010ECF54C025E060A840B8E493A37B
:10135E00FAE493A3F8E493A3C8C582C8CAC583CAA6
:10136E00F0A3C8C582C8CAC583CADFE9DEE780BE5E
:010F4E0000A2
:10049A0075F008758200EF2FFFEE33FECD33CDCC19
:1004AA0033CCC58233C5829BED9AEC99E58298409C
:1004BA000CF582EE9BFEED9AFDEC99FC0FD5F0D679
:1004CA00E4CEFBE4CDFAE4CCF9A88222B800C1B9A3
:1004DA000059BA002DEC8BF084CFCECDFCE5F0CBE1
:1004EA00F97818EF2FFFEE33FEED33FDEC33FCEB1A
:1004FA0033FB10D703994004EB99FB0FD8E5E4F9D5
:10050A00FA227818EF2FFFEE33FEED33FDEC33FCC1
:10051A00C933C910D7059BE99A4007EC9BFCE99AB5
:10052A00F90FD8E0E4C9FAE4CCFB2275F010EF2FFA
:10053A00FFEE33FEED33FDCC33CCC833C810D707FA
:10054A009BEC9AE899400AED9BFDEC9AFCE899F835
:0E055A000FD5F0DAE4CDFBE4CCFAE4C8F922C8
:0C056800E6FC08E6FD08E6FE08E6FF22BF
:0C057400E0FCA3E0FDA3E0FEA3E0FF22FA
:0C058000E2FC08E2FD08E2FE08E2FF22B7
:10058C00E493FC740193FD740293FE740393FF22B5
:10059C00F8E0FBA3A3E0F925F0F0E58215827002E8
:0705AC001583E0FA38F0228C
:0905B300EBF0A3EAF0A3E9F02249
:1005BC00D083D082F8E4937012740193700DA3A3CE
:1005CC0093F8740193F5828883E4737402936860E2
:0605DC00EFA3A3A380DFE2
:00000001FF
