:0F1C14004142434445464731323334343434007F
:100EBB004100E0074100D8034100D7014100E100A8
:080ECB004100D6004100D400F3
:100A600043BA801219FB121BD0121B86121CC5122E
:100A70001AFE9000E0E0FF7E00121C419000997485
:100A800001F0A37416F0A37408F0A37406F0FB7DC4
:100A90000B7F171214AF9000D57401F0121BF57B79
:100AA000FF7A1C7914E490009AF0FD120B957FE810
:100AB0007E037D007C00121A83C3E54B950BFFE596
:100AC0004A950AFEE5499509FDE5489508FCE47B51
:100AD000F47A01F9F8D31202D8500C854B0B854AF1
:100AE0000A854909854808C3E54B950FFFE54A95F6
:100AF0000EFEE549950DFDE548950CFCE47BF47A86
:100B000001F9F8D31202D850B07B017A0079D912DA
:100B10000CAC7E007F0A7D007B007A007914120302
:100B20008E9000D5E0B401299000D4E070047F01DC
:100B300080027F009000D4EFF0900099E4F0A3745D
:100B400000F0A37414F07B017A0079D91215CC80DF
:100B5000219000D5E0B4021AE49000D4F0900099FE
:100B6000F0A37400F0A37414F07B017A0079D91219
:100B700017237B007A0079149000D4E0FD90009A4E
:100B80007401F0120B95854B0F854A0E85490D8532
:050B9000480C020AB947
:0F1C05007E007F0A7D007B007A00791402038E37
:061CAD0090010FEFF02290
:101BF500538EFBE4F5D775D6B8438E1043AF042258
:030063000213760F
:10137600C0E0C0D020B315E5132401F513E43512FF
:10138600F512E43511F511E43510F51020B415E524
:10139600132401F513E43512F512E43511F511E4C1
:1013A6003510F51020B515E5132401F513E43512B3
:1013B600F512E43511F511E43510F51020B615E5F2
:1013C600132401F513E43512F512E43511F511E491
:0913D6003510F510D0D0D0E03242
:100ED30041009501410000071B22000000000000B3
:100EE30000000000000000000000000000000000FF
:100EF3000000000000609400010033330000201064
:100F03000000E1210000E1300000E2100000C330E6
:100F13000000C331000021100000E3310000E33082
:100F2300000008040000E3110000A93400000321BD
:100F3300000029340000C3210000C3010000C331B5
:100F43000000E211000009240000082400005209F7
:100F53000000022100003611000026190000233191
:100F63000000E101000023390000E1090000C33063
:100F73000000090400002230000024180000221B96
:0D0F83000000140A000014040000112004F6
:10193E0090FECCE4F090FEC97468F090FECC74106A
:10194E00F090FED7E4F0A37496F090FED27403F0FC
:10195E00A374E8F090FEB17404F090FEDD7480F094
:08196E0090FEC0E04481F0226C
:0D1C4F0090FEC0E054FEF090FEB1E4F022E3
:101AFE00D29112193E7F06121976E4FF1218C59084
:0C1B0E000000E0FF7E00121C410219D80C
:08000300C291121C4F0219D832
:1019D8007E007F1B7D007B007A00792212038E7BBC
:1019E800007A0079229000A8E4F0A3741BF0E4FFC9
:0319F8000211EDEC
:081844009000FBEEF0A3EFF0B1
:10184C00AF05120FA31202FC78101202E99000FDF2
:10185C00EFF01202FC78081202E99000FEEFF01291
:10186C0002FC9000FFEFF07B017A0079FD9000A85C
:0B187C00E4F0A37403F0E4FF0211EDA0
:061516009000EE120351EB
:10151C009000EEE0FCA3E0FDA3E0FEA3E0FF78105A
:10152C001202E9A3EFF09000EEE0FCA3E0FDA3E0D3
:10153C00FEA3E0FF78081202E99000F3EFF09000B0
:10154C00EEE0FCA3E0FDA3E0FEA3E0FF9000F4EFCF
:10155C00F07B017A0079F29000A8E4F0A37403F018
:05156C00E4FF0211ED97
:100B9500900099EDF0900096EBF0A3EAF0A3E9F050
:100BA50012000EE490009BF0A3F0A3F0A3F0D3EFA6
:100BB5009409EE940040067E007F09800090009F16
:100BC500EEF0A3EFF07E007F1B7D007B007A0079BD
:100BD5002212038EE490009DF0A3F090009FE0FEAA
:100BE500A3E0FF90009DE0FCA3E0FDC39FEC9E40C9
:100BF50003020C83900096E0FBA3E0FAA3E0F98DD5
:0A0C0500828C831201756065606344
:100C0F0090009DE0FEA3E0F5828E83120175FF1226
:100C1F000FA39000A1EBF0A3EAF0A3E9F01202FCFE
:100C2F0078101202E9E490009B75F00112027374C0
:100C3F002225F0F8A6071202FC78081202E9E490C8
:100C4F00009B75F001120273742225F0F8A60712AB
:100C5F0002FCE490009B75F001120273742225F0E0
:030C6F00F8A607DD
:100C720090009EE004F0700690009DE004F0020BEC
:100C8200E090009AE06003432940900099E06006FA
:100C9200432F404335407B007A0079229000A8E43C
:0A0CA200F0A3741BF0E4FF0211ED53
:0D1C5C00900095EFF0900000E0FD02188769
:0E1C4100900000EFF0FD900095E0FF02188784
:060DB8009000A51203519A
:100DBE009000B1E0F8A3E0F9A3E0FAA3E0FBA3E012
:100DCE00FCA3E0FDA3E0FEA3E0C39BFFEE9AFEEDC5
:100DDE0099FDEC98FCA31203519000A9E0F8A3E052
:100DEE00F9A3E0FAA3E0FBA3E0FCA3E0FDA3E0FE81
:100DFE00A3E0C39BFFEE9AFEED99FDEC98FC9000EC
:100E0E00BD1203519000A9E0F8A3E0F9A3E0FAA304
:100E1E00E0FB9000A5E0FCA3E0FDA3E0FEA3E0C391
:100E2E009BFFEE9AFEED99FDEC98FC9000C112032B
:100E3E0051E47B02FAF9F89000BDE0FCA3E0FDA3BB
:100E4E00E0FEA3E0FF121800C004C005C006C007F4
:100E5E009000B9E0FCA3E0FDA3E0FEA3E0FF90004C
:100E6E00C1E0F8A3E0F9A3E0FAA3E0FB120289D0F7
:100E7E0003D002D001D000EF2BFFEE3AFEED39FD8C
:100E8E00EC38FC9000BDE0F8A3E0F9A3E0FAA3E093
:100E9E00FB1218009000B1E0F8A3E0F9A3E0FAA36A
:0C0EAE00E02FFFEA3EFEE93DFDE83CFCC1
:010EBA002215
:100FA3009000A4EFF0BF20030210809000A4E0FFA4
:100FB300C3648094B04041D3EF648094BA5039E065
:100FC3003395E0FEFDFCC004C005C006C0079000D9
:100FD300A912035D000000309000AD12035D000014
:100FE300003A9000B112035D000000009000B512BA
:100FF300035D0000000A804B9000A4E0FFC36480FF
:1010030094C1405ED3EF648094DA5056E03395E0A8
:10101300FEFDFCC004C005C006C0079000A9120372
:101023005D000000419000AD12035D0000005A9086
:1010330000B112035D0000000B9000B512035D00C8
:10104300000024D007D006D005D004120DB8E47BED
:1010530004FAF9F812028974012FF974003EFA7B3D
:1010630001229000A4E0FFC3648094E1400FD3EF1A
:10107300648094FA5007EF24E0FF020FA37B007A09
:0410830000790022CE
:0513DF009000ACEFF0EE
:1013E400E4A3F0A3F0C2909000ADF0A3F07F0A7ED6
:1013F400007D007C00121B1A9000ACE030E004D2A7
:10140400B78002C2B77F0A7E007D007C00121B1ADF
:10141400D2907F0A7E007D007C00121B1AC290903D
:1014240000ACE0C313F09000AEE004F0700690004E
:10143400ADE004F0C39000AEE094089000ADE094F9
:031444000040AABB
:011447002282
:1018C5009000967440F0EF6004E04404F0D2947FF9
:1018D5000A7E007D007C00121B1AC2947F0A7E00DE
:1018E5007D007C00121B1A900096E0FF1213DF7F2B
:0C18F5000A7E007D007C00121B1AD294B9
:0119010022C3
:10197600900096EFF0D2947F0A7E007D007C0012E4
:101986001B1AC2947F0A7E007D007C00121B1A90EF
:101996000096E0FF1213DF7F0A7E007D007C0012B6
:0519A6001B1AD294227F
:10188700ED4480900096F0EF6004E04408F0D294B5
:101897007F0A7E007D007C00121B1AC2947F0A7E9D
:1018A700007D007C00121B1A900096E0FF1213DFE8
:0D18B7007F0A7E007D007C00121B1AD29477
:0118C4002201
:0E11ED009000A4EFF0A3EBF0A3EAF0A3E9F06A
:1011FB00E49000AAF0A3F0D2947F0AFEFDFC121B30
:10120B001AC2947F0A7E007D007C00121B1A90008C
:10121B00A4E044C0FF1213DF7F0A7E007D007C0038
:10122B00121B1AE49000AAF0A3F09000A8E0FEA312
:10123B00E0FFA3E0FCA3E0FDC39FEC9E50269000D3
:10124B00A5E0FBA3E0FAA3E0F98D828C8312017574
:10125B00FF1213DF9000ABE004F070CE9000AAE019
:10126B0004F080C67F0A7E007D007C00121B1AD220
:01127B0094DE
:01127C00224F
:10002600572D25626425303262642530326264259C
:1000360030326264003230256264253032626425D3
:0500460030326264008D
:071C9F0043914043924022F3
:071CA6004391405392BF225D
:0F1C230043912043922043918053927F021C9F54
:0B19AB00EFF0A3EBF0A3EAF0A3E9F0DB
:1019B600121C9FD296D2957F047E007D007C001279
:1019C6001B1AC2967F047E007D007C00121B1AC281
:0219D600952258
:101A6200121C9FC295C296D2957F047E007D007C97
:101A720000121B1AD2967F047E007D007C00021B9E
:011A82001A49
:101A1E00121C9FD296C2957F047E007D007C001220
:101A2E001B1AD2957F047E007D007C00121B1AC209
:021A3E009522EF
:101A4000121C9FC296C2957F047E007D007C00120E
:101A50001B1AD2957F047E007D007C00121B1AC2E7
:021A60009522CD
:10130900E49000ACF0A37403F0D2967F017E007DD7
:10131900007C00121B1A121CA67F017E007D007C36
:1013290000121B1AD2957F017E007D007C00121BE2
:101339001A30961C9000ADE0D3940040137F017ED3
:10134900007D007C00121B1A9000ADE014F080E1D2
:101359009000ADE060069000AC7401F09000ACE044
:0C1369007003121A62C2959000ACE0FF05
:011375002255
:05167D009000AAEFF04F
:10168200121C9FC2957F047E007D007C00121B1AF3
:10169200E49000ABF09000AAE030E704D29680021A
:1016A200C2967F047E007D007C00121B1AD2957FB9
:1016B200047E007D007C00121B1AC2959000AAE0F5
:1016C200FF25E0F0A3E004F0E0C3940840C7021352
:0116D200090E
:051626009000A6EFF0AA
:10162B00E4A3F0121CA6A3F0C2957F047E007D00FC
:10163B007C00121B1AD2959000A7E025E0F03096A3
:10164B0004E04401F07F017E007D007C00121B1A38
:10165B009000A8E004F0E0C3940840CCC295900041
:10166B00A6E06005121A408003121A1E9000A7E034
:01167B00FF6F
:01167C00224B
:031448009000A071
:10144B001219AB7F6412167DEF60589000A0E0FF7D
:10145B0012167DEF604D1219B67F6512167DEF6087
:10146B0042E49000A5F09000A4E0FFA3E0FEC39F30
:10147B00502EEF14B506047F0080027F0112162652
:10148B009000A1E0FBA3E0FAA3E0F99000A5E0F542
:10149B0082758300EF1201B49000A5E004F080C6C2
:0314AB00121A62B0
:0114AE00221B
:0316D3009000A4E0
:1016D6001219AB7F6412167DEF60419000A4E0FF03
:1016E60012167DEF6036E49000A9F09000A8E0FFA6
:1016F600A3E0FEC39F50229000A5E0FBA3E0FAA35F
:10170600E0F98E82758300120175FF12167DEF6077
:0C1716000B9000A9E004F080D2121A62CF
:0117220022A4
:031CC500021C23DB
:101AC400121C23E490010BF0A37440F07B017A0113
:0D1AD400790B9000A87402F07FE00216D399
:10004E00EF75F00A84C454F0FEEF75F00A84E5F003
:03005E004EFF2230
:0F1C3200EFC4540F75F00AA4FEEF540F2EFF22DB
:0214AF00AC0788
:1014B100121C2390009CE0FF12004EA3EFF090005D
:1014C1009BE0FF12004E90009EEFF090009AE0FF2B
:1014D10012004E90009FEFF0900099E0FFF8E408B1
:1014E1008002C313D8FC44019000A0F0AF031200A6
:1014F1004EA3EFF0AF0512004EA3EFF0AF041200C0
:101501004EA3EFF07B017A00799D9000A87407F05B
:05151100E4FF0216D307
:0B0CAC00900096EBF0A3EAF0A3E9F043
:100CB700121C237B017A0079999000A47407F0E451
:100CC700FF121448900099E0FF121C32900096E042
:100CD700FBA3E0FAA3E0F9900006EF1201B490003D
:100CE7009AE0FF121C32900096E0FBA3E0FAA3E023
:100CF700F9900005EF1201B490009BE0FF121C323F
:100D0700900096E0FBA3E0FAA3E0F9900004EF124D
:100D170001B490009DE0FF121C32900096E0FBA307
:100D2700E0FAA3E0F9900002EF1201B490009EE010
:100D3700FF121C32900096E0FBA3E0FAA3E0F990C3
:100D47000001EF1201B490009FE0FF121C329000E7
:100D570096E0FBA3E0FAA3E0F9EF1201A290009658
:100D6700E0FBA3E0FAA3E0F990000112017524016A
:100D7700FFE433FE7C007D0D1201D67D0512023D96
:100D870012015CFD1313543F2DFDE433CD2FFFED0E
:100D97003EFE9000021201757C002FFFEC3ECF242F
:100DA700DCCF34FFFE7D0712023D900003ED020108
:010DB700B487
:1015CC00900096EBF0A3EAF0A3E9F090009F74FF73
:1015DC00F0A37400F0A37426F0900096E0FBA3E057
:1015EC00FAA3E0F99000031201759000A2F09000AC
:1015FC00041201759000A3F0900005120175900083
:10160C00A4F09000061201759000A5F0900099E0EE
:0A161C00FBA3E0FAA3E0F902056762
:10172300900096EBF0A3EAF0A3E9F090009F74FF1A
:10173300F0A37400F0A3743BF0900096E0FBA3E0E9
:10174300FAA3E0F912015C9000A2F09000011201EB
:10175300759000A3F09000021201759000A4F09020
:0D1763000099E0FBA3E0FAA3E0F90205679E
:0C1C7600405354434953502300FF1C7698
:0C0F9000044800000000C10941011000ED
:101B8600759850438E40538EFE53890F758BD075D2
:091B96008DFFC2ABD28ED2AC224D
:030023000211586F
:10115800C0E0C083C082C0D075D000C000C001C04C
:0511680002C003C007F6
:10116D00309904C299C209309863C298AF99901C06
:10117D007FE493FB740193FA740293F9900110E0EC
:10118D00F582758300120175B50719900110E00401
:10119D00F0900110E0F582758300120175702E75C7
:1011AD00C7608029900110E004F0901C7FE493FB50
:1011BD00740193FA740293F9900110E0F58275832E
:0D11CD0000120175B50706900110E004F056
:1011DA00D007D003D002D001D000D0D0D082D083A3
:0311EA00D0E03220
:101B9F0012015C60132009FDD20912015CF59974E2
:091BAF000129F9E43AFA80E82268
:081C97002009FDD2098F9922FA
:101BD000438E807589F3758A9A758CA9C28DD28CD3
:031BE000D2A92265
:091C8E00AF4BAE4AAD49AC48224F
:03000B00021AA432
:101AA400C0E0C0D0E54B2401F54BE4354AF54AE4E7
:101AB4003549F549E43548F548C28DD0D0D0E032F7
:1019FB00E4F5B275B178F592F59190FE1174E0F0C3
:101A0B0090FE137478F043920890FE21E054F7F0A7
:031A1B00D2AF2225
:061A8300900096120351D1
:101A890075431D7544B7D544FDD543FA9000967446
:0A1A9900FF12031EEC4D4E4F70E6E5
:011AA3002220
:061B1A009000AF12035120
:101B200000754305D543FD9000AF74FF12031EEC12
:051B30004D4E4F70EB6B
:011B3500228D
:060F9C004300E50064FFC4
:03004B00021CB3E1
:061CB30075CDC0C20A322B
:0C1C820075CDC075CED443AF02C29322D2
:061CB900E4F5CEC2932207
:061CBF00200AFD8FCF2278
:101770007D067C00121C82E4FEEEC39DE49C503684
:10178000743D2EF8E690010DF0E4FB90010DE03081
:10179000E706A374FCF0800690010E74C0F090017F
:1017A0000EE0FF121CBF90010DE0FF25E0F00BEBF7
:0317B000B408D8A2
:0617B3000E80C3021CB908
:10190200EFC394025035EF75F003A424E8F582E4A6
:101912003400F583EDF0EF75F003A424E9F582E4D9
:101922003400F583EBF0900103E0FEEF75F003A4C1
:0C19320024EAF582E43400F583EEF02294
:051087009000F5EFF000
:10108C00E4A3F0A3F0FE7F06FDFB7A00793D12038A
:10109C008EE49000F7F09000F7E0FFC39402400359
:0310AC0002114AE4
:1010AF00EF75F003A424E8F9740035F0FA7B01A37F
:1010BF00EBF0A3EAF0A3E9F0900001120175FF7EB7
:1010CF00009000F5E0FD7C001201D67DFF1201E8D3
:1010DF00A3E0FE04F0743D2EF8A6079000F8E0FBA5
:1010EF00A3E0FAA3E0F912015CFF7E009000F5E0A7
:1010FF00FD7C001201D67DFF1201E8A3E0FE04F093
:10110F00743D2EF8A6079000F8E0FBA3E0FAA3E0E9
:10111F00F9900002120175FF7E009000F5E0FD7C52
:10112F00001201D67DFF1201E8A3E0FE04F0743D2A
:04113F002EF8A607D9
:10114300A3E004F00210A21217707F647E007D00FA
:051153007C00021B1AE4
:1017B900E4900104F0F0900104E0FFC39402503278
:1017C900EF75F003A424E8F9740035F0FA7B01A35E
:1017D900EBF0A3EAF0A3E9F0900002E41201B4905F
:0A17E9000001E41201B4E41201A2B1
:0D17F300900104E004F080C4E4FF021087C0
:05157100900111EFF0F4
:1015760078C57C007D017B017A0079E57E007F03DA
:1015860012013612086778E27C007D017E007F0337
:101596001201369000E2E0FDA3E0FBA3E090010318
:1015A600F0E4FF1219029000E2E0FDA3E0FBA3E0E5
:1015B600900103F00F1219029000E5E004F090018B
:0615C60011E0FF02108796
:071B52009000CDE0FF7DAA29
:101B5900AC07ED2401FFE433FEAD047C001201D68D
:031B6900EEFF226A
:101AE100AB05AA077C007E001201D6EEFFEA600773
:0D1AF100EB60047E0180027E00EE2FFF22DC
:101BE300900108EFF0A3EDF0A3EBF07B017A01790C
:011BF30008E9
:011BF40022CE
:100867009000C87401F0E4A3F0A3F0A3F09000C5D2
:10087700E0FBA3E09000CCF09000C7E0F9EB541F39
:1008870033333354F8FF9000CDF07D55121B59AA2E
:1008970007EB30E70302092E20E64020E50AC37480
:1008A700FF9AA3F0A3EA80699000C8E0600E900069
:1008B700CE74ABF0EA2455A3F0E4A3F09000C9E0AE
:0508C700700302098628
:1008CC00121B529000D1EFF0FEEA24AA9000CEF059
:0408DC00EE2455A30E
:0C08E0008036EB20E5389000C8E060187E
:1008EC00121B529000D1EFF0C374AB9F9000CEF06E
:0808FC00EA24AAA3F0E4A3F032
:100904009000C9E0607C9000CDE0FFC374FF9FA31A
:10091400F0A374FFF0E4A3F08068E49000CEF0C389
:1009240074FF9AA3F0A3EAF08058EB20E63120E5A7
:0109340021A1
:10093500121B529000D1EFF0E49000CEF09000D160
:0F094500E0FFC374AB9F9000CFF0EF2455A3F0F9
:1009540080309000CEEAF0E4A3F0C374FF8020EB73
:1009640020E50FEA24559000CEF0E4A3F0C374AB65
:10097400800DEA24AA9000CEF0E4A3F0C374559A43
:10098400A3F09000CAE060079000CFE0C313F0909A
:1009940000CBE0FD600A9000CFE0FF121AE1EFF017
:1009A4009000CCE0FFF4606DEF70109000CE74FF07
:0B09B400F09000D0F09000CFF0805ACF
:1009BF009000CCE0FFC374FF9FFF9000D1F0FD12B9
:1009CF001AE1EFF0C374FF9FA3F0FD9000CEE0FF9C
:1009DF00121B59EFF0A3E0FF9000D2E0FD121B595C
:1009EF009000CFEFF0A3E0FF9000D2E0FD121B5973
:1009FF009000D0EFF0A3E0FF9000D3F09000CEE096
:0A0A0F002FF0A3E02FF0A3E02FF07A
:100A1900E9F46035AF01AD01121AE1A907E99000C7
:100A2900CE7007F0A3F0A3F0801FE0FFAD01121B09
:100A390059EFF0A3E0FFAD01121B59EFF0A3E0FF5E
:100A4900AE01AD06121B59EFF09000CEE0FFA3E016
:070A5900FDA3E0FB021BE31B
:0D1C6900E4F5C7F5C5F5C675C380F5C422C6
:101B6C0075C78075F51675C5018FC4EEF5C375C6BE
:0A1B7C005A75C6A500AFC2021C692D
:101BB80075C78075F51675C5038FC4EEF5C375C670
:081BC8005A75C6A500021C6954
:101B360075C78075F51675C5028FC4EEF5C3AF057A
:0C1B46008FC275C65A75C6A500021C6946
:0300000002127D6C
:0C127D00787FE4F6D8FD75814B0212C4A6
:10006600E709F608DFFA8046E709F208DFFA803E7C
:1000760088828C83E709F0A3DFFA8032E309F60869
:10008600DFFA8078E309F208DFFA807088828C83D1
:10009600E309F0A3DFFA806489828A83E0A3F60885
:1000A600DFFA805889828A83E0A3F208DFFA804C5F
:1000B60080D280FA80C680D4806980F28033801036
:1000C60080A680EA809A80A880DA80E280CA80339F
:1000D60089828A83ECFAE493A3C8C582C8CCC58317
:1000E600CCF0A3C8C582C8CCC583CCDFE9DEE780E7
:1000F6000D89828A83E493A3F608DFF9ECFAA9F066
:10010600EDFB2289828A83ECFAE0A3C8C582C8CCBB
:10011600C583CCF0A3C8C582C8CCC583CCDFEADED4
:10012600E880DB89828A83E493A3F208DFF980CC36
:1001360088F0EF60010E4E60C388F0ED2402B4042F
:100146000050B9F582EB2402B4040050AF232345D6
:0601560082239000B67345
:10015C00BB010689828A83E0225002E722BBFE02A1
:09016C00E32289828A83E49322D4
:10017500BB010CE58229F582E5833AF583E022503F
:1001850006E92582F8E622BBFE06E92582F8E22289
:0D019500E58229F582E5833AF583E49322A3
:1001A200BB010689828A83F0225002F722BBFE013C
:0201B200F32236
:1001B400F8BB010DE58229F582E5833AF583E8F081
:1001C400225006E92582C8F622BBFE05E92582C82D
:0201D400F22215
:1001D600EF8DF0A4A8F0CF8CF0A428CE8DF0A42E3D
:0201E600FE22F7
:1001E800BC000BBE0029EF8DF084FFADF022E4CCFB
:1001F800F875F008EF2FFFEE33FEEC33FCEE9DECC4
:10020800984005FCEE9DFE0FD5F0E9E4CEFD22ED09
:10021800F8F5F0EE8420D21CFEADF075F008EF2F53
:10022800FFED33FD4007985006D5F0F222C398FD44
:050238000FD5F0EA22E1
:10023D00C2D5EC30E709B2D5E4C39DFDE49CFCEEDC
:10024D0030E715B2D5E4C39FFFE49EFE1201E8C36B
:10025D00E49DFDE49CFC80031201E830D507C3E466
:06026D009FFFE49EFE224B
:10027300A3F8E0C5F025F0F0E5821582700215833E
:06028300E0C838F0E8229B
:10028900E88FF0A4CC8BF0A42CFCE98EF0A42CFC14
:100299008AF0EDA42CFCEA8EF0A4CDA8F08BF0A492
:1002A9002DCC3825F0FDE98FF0A42CCD35F0FCEBF1
:1002B9008EF0A4FEA9F0EB8FF0A4CFC5F02ECD39B6
:0F02C900FEE43CFCEAA42DCE35F0FDE43CFC2223
:10180000C2D5E830E70FB2D5E4C39BFBE49AFAE413
:1018100099F9E498F8EC30E717B2D51218361203AC
:10182000F6E4C39BFBE49AFAE499F9E498F88003A0
:101830001203F630D50DE4C39FFFE49EFEE49DFD48
:04184000E49CFC2206
:1002D800EB9FF5F0EA9E42F0E99D42F0E89C45F07C
:0102E80022F3
:1002E900E8600FECC313FCED13FDEE13FEEF13FFF3
:0302F900D8F12217
:1002FC00BB010789828A830204945005E9F8020441
:10030C0088BBFE05E9F80204A089828A830204AC4A
:10031C007401FF3395E0FEFDFCA3A3A3E02FFFF0D7
:10032C00E582158270021583E03EFEF0E5821582AF
:10033C0070021583E03DFDF0E58215827002158395
:05034C00E03CFCF02282
:0C035100ECF0A3EDF0A3EEF0A3EFF0221F
:10035D00A8828583F0D083D08212037412037412A5
:10036D000374120374E473E493A3C583C5F0C583CA
:10037D00C8C582C8F0A3C583C5F0C583C8C582C8EA
:01038D00224D
:10050200E543249FF582E43400F583E0054322901D
:10051200009C30070390009FE475F0011204BC02B6
:10052200015C2000E97F2ED2008018EF540F249046
:10053200D43440D4FF30040BEF24BFB41A0050036C
:100542002461FFE544600215440547E54770020552
:100552004630070E90009CE475F0011204BCEF02D5
:1005620001A2021C977403D2078003E4C207F54379
:1005720090009C1204D3E4F544F546F547E5446047
:10058200077F2012054580F57545FFC201C200C2F2
:1005920002C203C205C206C208120511FF700D3065
:1005A20007057F00120556AF47AE4622B4255FC24B
:1005B200D5C204120511FF24D0B40A00501A75F0F6
:1005C2000A784430D50508B6FF0106C6A426F620EF
:1005D200D5047002D20380D924CFB41A00EF50049C
:1005E200C2E5D204020757D20180C6D20080C0D22F
:1005F2000280BCD2D580BAD20580B47F20120545D4
:100602002002077401B5440040F1120502FF1205F1
:100612004502057FD208D2068095120502FB12051B
:1006220002FA120502F94A4B700679287A087BFF12
:1006320020022EE544602A7E008E8275830012011C
:100642007560060EEE654570F0C2D5EBC0E0EAC0FB
:10065200E0E9C0E0EE12079ED0E0F9D0E0FAD0E087
:10066200FB12015CFF60AAEBC0E0EAC0E0E9C0E077
:10067200120545D0E02401F9D0E03400FAD0E0FBC5
:10068200E5450460DCD545D980877BFF7A07799AF6
:10069200D202809C791080027908C206C2088008C2
:1006A200D2D5790A8004790AC2D5E545047002F5EB
:1006B20045E4FAFDFEFF120502FC7B08200113123D
:1006C2000502FD7B1030000A120502FE120502FF30
:1006D2007B20EC3382D592D55013C3E43000069FC1
:1006E200FFE49EFEE42001039DFDE49CFCE4CBF8C4
:1006F200C201EC700CCFCECDCCE824F8F870F380B8
:1007020017C3EF33FFEE33FEED33FDEC33FCEB3377
:10071200FB994002FB0FD8E9EB300105F8D0E0C4A9
:1007220048B201C0E00AEC4D4E4F78207B0070C207
:10073200EAB5450040BCC0E01207A0D0F0D0E020EE
:100742000104C4C0E0C4B201C0F012052ED0F0D53D
:10075200F0EB02057F1204DC061C5306965805EDE9
:100762004C05E942069A4F06A24406A249060243F4
:0807720006A855068C46068C12
:10077A0045068C4708485005F12D05F52E06182B1D
:10078A0005F92306162008312A05B148000006108B
:10079A003F3F3F00790AA2D5200314300509B9105A
:1007AA00020404B9080104A2D5200602500104205B
:1007BA0002689202B544005034C0E07F2030031929
:1007CA007F30A20272067205500F1207F7C202C2E8
:1007DA0006C205C2087F30800F300503E9C0E01267
:1007EA000545300503D0E0F9D0E0B544CC30051713
:1007FA007F30B9100C1205457F583004077F788086
:10080A0003B908031205453002057F2D0205457F0D
:10081A00202008F87F2B2006F322920280CF286E30
:10082A00756C6C2900D2011205023001F8C20178F8
:10083A004430D50108F60205B12D50434958120536
:10084A00022403B405004001E490084393120536DC
:0D085A00743A120536D20375440402069666
:10000E00E4FFFE12015C600C0FEF70010E09E97047
:05001E00F20A80EF2250
:10038E00EF4E6012EF60010EEDBB010B89828A8386
:10039E00F0A3DFFCDEFA2289F05007F709DFFCA993
:0C03AE00F022BBFEFCF309DFFCA9F022EA
:10128900020A60E493A3F8E493A34003F68001F211
:1012990008DFF48029E493A3F85407240CC8C33366
:1012A900C4540F4420C8834004F456800146F6DF35
:1012B900E4800B0102040810204080900EBBE47EFC
:1012C900019360BCA3FF543F30E509541FFEE4932A
:1012D900A360010ECF54C025E060A840B8E493A3F1
:1012E900FAE493A3F8E493A3C8C582C8CAC583CA1C
:1012F900F0A3C8C582C8CAC583CADFE9DEE780BED4
:010FA200004E
:1003BA0075F008758200EF2FFFEE33FECD33CDCCFA
:1003CA0033CCC58233C5829BED9AEC99E58298407D
:1003DA000CF582EE9BFEED9AFDEC99FC0FD5F0D65A
:1003EA00E4CEFBE4CDFAE4CCF9A88222B800C1B984
:1003FA000059BA002DEC8BF084CFCECDFCE5F0CBC2
:10040A00F97818EF2FFFEE33FEED33FDEC33FCEBFA
:10041A0033FB10D703994004EB99FB0FD8E5E4F9B5
:10042A00FA227818EF2FFFEE33FEED33FDEC33FCA2
:10043A00C933C910D7059BE99A4007EC9BFCE99A96
:10044A00F90FD8E0E4C9FAE4CCFB2275F010EF2FDB
:10045A00FFEE33FEED33FDCC33CCC833C810D707DB
:10046A009BEC9AE899400AED9BFDEC9AFCE899F816
:0E047A000FD5F0DAE4CDFBE4CCFAE4C8F922A9
:0C048800E6FC08E6FD08E6FE08E6FF22A0
:0C049400E0FCA3E0FDA3E0FEA3E0FF22DB
:0C04A000E2FC08E2FD08E2FE08E2FF2298
:1004AC00E493FC740193FD740293FE740393FF2296
:1004BC00F8E0FBA3A3E0F925F0F0E58215827002C9
:0704CC001583E0FA38F0226D
:0904D300EBF0A3EAF0A3E9F0222A
:1004DC00D083D082F8E4937012740193700DA3A3AF
:1004EC0093F8740193F5828883E4737402936860C3
:0604FC00EFA3A3A380DFC3
:00000001FF
