:10198C001217A01219B3121975121A63121909122F
:04199C0019D880FED8
:1016860041006F0141006A0558007000000000002B
:101696000000000000000000000000000000000044
:0316A60000000041
:1016040090FECCE4F090FED0F0A3F0A37403F0A31A
:1016140074E8F090FED57401F0A374F4F090FEC861
:101624007468F090FECC7401F090FEB17404F090F4
:10163400FEDD7480F090FEB2E4F090FEC0E04481E0
:02164400F02292
:0D1A140090FEC0E054FEF090FEB1E4F02220
:10190900D2911216047F0312173EE4FF12002690AB
:0C191900006AE0FF7E00121A060217C6EA
:08000300C291121A140217C683
:1017C6007E007F187D007B017A00797012037D7B95
:1017D600017A00797090003FE4F0A37418F0E4FFFA
:0317E600020F5E91
:08152E009000E3EEF0A3EFF0E2
:10153600AF05120EC71202EB78101202D89000E522
:10154600EFF01202EB78081202D89000E6EFF012E4
:1015560002EB9000E7EFF09000E3A3E075F003A440
:10156600FF7B017A0079E590003FE4F0A37403F075
:03157600020F5E03
:0613D6009000D01203405C
:1013DC009000D0E0FCA3E0FDA3E0FEA3E0FF7810BA
:1013EC001202D8A3EFF09000D0E0FCA3E0FDA3E044
:1013FC00FEA3E0FF78081202D89000D5EFF0900021
:10140C00D0E0FCA3E0FDA3E0FEA3E0FF9000D6EF4C
:10141C00F07B017A0079D490003FE4F0A37403F0E0
:05142C00E4FF020F5E69
:100A62009000ACEDF09000A9EBF0A3EAF0A3E9F05E
:100A720012000EE49000ADF0A3F0A3F0A3F0D3EFC8
:100A82009406EE940040067E007F0680009000B13E
:100A9200EEF0A3EFF07E007F187D007B017A0079F3
:100AA2007012037DE49000AFF0A3F09000B1E0FE7D
:100AB200A3E0FF9000AFE0FCA3E0FDC39FEC9E40EB
:100AC20003020B659000A9E0FBA3E0FAA3E0F98D15
:0A0AD200828C83120175607A60784F
:100ADC009000AFE0FEA3E0F5828E83120175FF1249
:100AEC000EC79000B3EBF0A3EAF0A3E9F01202EB0F
:100AFC0078101202D8E49000AD75F001120273FC6C
:100B0C00747025F0F58274003CF583EFF01202EB63
:100B1C0078081202D8E49000AD75F001120273FC53
:100B2C00747025F0F58274003CF583EFF01202EB43
:100B3C00E49000AD75F001120273FC747025F0F5B1
:080B4C008274003CF583EFF018
:100B54009000B0E004F070069000AFE004F0020AE8
:100B6400AD9000ACE0600E900075E04410F0900091
:100B74007BE04410F07B017A00797090003FE4F050
:0B0B8400A37418F07F03120F5E7F01C6
:010B8F002243
:0D1A210090006FEFF090006AE0FD0216C427
:0E1A060090006AEFF0FD90006FE0FF0216C442
:060DC40090004A120340FA
:100DCA00900056E0F8A3E0F9A3E0FAA3E0FBA3E061
:100DDA00FCA3E0FDA3E0FEA3E0C39BFFEE9AFEEDB9
:100DEA0099FDEC98FCA312034090004EE0F8A3E0B2
:100DFA00F9A3E0FAA3E0FBA3E0FCA3E0FDA3E0FE75
:100E0A00A3E0C39BFFEE9AFEED99FDEC98FC9000DF
:100E1A006212034090004EE0F8A3E0F9A3E0FAA3BF
:100E2A00E0FB90004AE0FCA3E0FDA3E0FEA3E0C3E0
:100E3A009BFFEE9AFEED99FDEC98FC90006612037A
:100E4A0040E47B02FAF9F8900062E0FCA3E0FDA31B
:100E5A00E0FEA3E0FF1215C0C004C005C006C0072B
:100E6A0090005EE0FCA3E0FDA3E0FEA3E0FF90009B
:100E7A0066E0F8A3E0F9A3E0FAA3E0FB120289D046
:100E8A0003D002D001D000EF2BFFEE3AFEED39FD80
:100E9A00EC38FC900062E0F8A3E0F9A3E0FAA3E0E2
:100EAA00FB1215C0900056E0F8A3E0F9A3E0FAA3FC
:0C0EBA00E02FFFEA3EFEE93DFDE83CFCB5
:010EC6002209
:100EC7009000FDEFF0BF2003020F579000FDE0FFF9
:100ED700C3648094A1405ED3EF648094E05056E0F1
:100EE7003395E0FEFDFCC004C005C006C0079000B6
:100EF7004E12034C0000002190005212034C0000D8
:100F0700006090005612034C0000000090005A1237
:100F1700034C0000003FD007D006D005D004120DC7
:100F2700C4E47B04FAF9F8120289746B2FF9740090
:100F37003EFA7B01229000FDE0FFC3648094E1400C
:100F47000FD3EF648094FA5007EF24E0FF020EC737
:070F57007B007A0079002203
:05117300900043EFF0C5
:10117800E4A3F0A3F0C290900044F0A3F07F0A7EAD
:10118800007D007C00121925900043E030E004D275
:10119800B78002C2B77F0A7E007D007C0012192545
:1011A800D2907F0A7E007D007C00121925C29090A3
:1011B8000043E0C313F0900045E004F0700690008F
:1011C80044E004F0C3900045E09408900044E094A3
:0311D8000040AA2A
:0111DB0022F1
:1000260090003B7440F0EF6004E04404F0D2947F0B
:100036000A7E007D007C00121925C2947F0A7E008C
:100046007D007C0012192590003BE0FF1211737FA2
:0C0056000A7E007D007C00121925D29467
:01006200227B
:10173E0090003BEFF0D2947F0A7E007D007C001279
:10174E001925C2947F0A7E007D007C001219259017
:10175E00003BE0FF1211737F0A7E007D007C0012B9
:05176E001925D29422B0
:1016C400ED448090003BF0EF6004E04408F0D294D5
:1016D4007F0A7E007D007C00121925C2947F0A7E59
:1016E400007D007C0012192590003BE0FF1211736D
:0D16F4007F0A7E007D007C00121925D29433
:0117010022C5
:0E0F5E0090003BEFF0A3EBF0A3EAF0A3E9F064
:100F6C00E4900041F0A3F0D2947F0AFEFDFC12192C
:100F7C0025C2947F0A7E007D007C0012192590000A
:100F8C003BE044C0FF1211737F0A7E007D007C00A1
:100F9C00121925E4900041F0A3F090003FE0FEA36D
:100FAC00E0FFA3E0FCA3E0FDC39FEC9E5026900065
:100FBC003CE0FBA3E0FAA3E0F98D828C831201756F
:100FCC00FF121173900042E004F070CE900041E0EB
:100FDC0004F080C67F0A7E007D007C00121925D2A9
:010FEC009470
:010FED0022E1
:10194100253032642530326425303264003230254E
:0A1951006425303264253032640052
:071A4800439140439240224C
:071A4F004391405392BF22B6
:0F19E80043912043922043918053927F021A48EB
:0B177300EFF0A3EBF0A3EAF0A3E9F015
:10177E00121A48D296D2957F047E007D007C00120C
:10178E001925C2967F047E007D007C00121925C2A9
:02179E00952292
:10182D00121A48C295C296D2957F047E007D007C27
:10183D0000121925D2967F047E007D007C000219CE
:01184D002575
:1017E900121A48D296C2957F047E007D007C0012B1
:1017F9001925D2957F047E007D007C00121925C22F
:02180900952226
:10180B00121A48C296C2957F047E007D007C00129E
:10181B001925D2957F047E007D007C00121925C20C
:02182B00952204
:10110600E49000F7F0A37403F0D2967F017E007D91
:10111600007C00121925121A4F7F017E007D007C8B
:1011260000121925D2957F017E007D007C001219E0
:101136002530961C9000F8E0D3940040137F017E82
:10114600007D007C001219259000F8E014F080E183
:101156009000F8E060069000F77401F09000F7E068
:0C116600700312182DC2959000F7E0FFF6
:01117200225A
:051488009000F9EFF0F7
:10148D00121A48C2957F047E007D007C001219253A
:10149D00E49000FAF09000F9E030E704D296800273
:1014AD00C2967F047E007D007C00121925D2957FA7
:1014BD00047E007D007C00121925C2959000F9E094
:1014CD00FF25E0F0A3E004F0E0C3940840C702114B
:0114DD000608
:051431009000F4EFF053
:10143600E4A3F0121A4FA3F0C2957F047E007D004C
:101446007C00121925D2959000F5E025E0F0309643
:1014560004E04401F07F017E007D007C0012192526
:101466009000F6E004F0E0C3940840CCC2959000EA
:10147600F4E0600512180B80031217E99000F5E0FE
:01148600FF66
:011487002242
:031244009000D740
:101247001217737F64121488EF60589000D7E0FF7D
:10125700121488EF604D12177E7F65121488EF60B5
:1012670042E49000DCF09000DBE0FFA3E0FEC39FC8
:10127700502EEF14B506047F0080027F011214314F
:101287009000D8E0FBA3E0FAA3E0F99000DCE0F5DA
:1012970082758300EF1201B49000DCE004F080C691
:0312A70012182DED
:0112AA002221
:0314DE009000DD9E
:1014E1001217737F64121488EF60419000DDE0FFF2
:1014F100121488EF6036E49000E2F09000E1E0FF22
:10150100A3E0FEC39F50229000DEE0FBA3E0FAA31C
:10151100E0F98E82758300120175FF121488EF6065
:0C1521000B9000E2E004F080D212182DC4
:01152D00229B
:031A63000219E87D
:1018CF001219E8E49000FBF0A37440F07B017A005A
:0D18DF0079FB9000E17402F07FE00214DE5E
:1019A000EF75F00A84C454F0FEEF75F00A84E5F098
:0319B0004EFF22C5
:0F19F700EFC4540F75F00AA4FEEF540F2EFF2219
:0212AB00AC078E
:1012AD001219E89000A1E0FF1219A0A3EFF0900031
:1012BD00A0E0FF1219A09000A3EFF090009FE0FFB7
:1012CD001219A09000A4EFF090009EE0FFF8E40842
:1012DD008002C313D8FC44019000A5F0AF0312198E
:1012ED00A0A3EFF0AF051219A0A3EFF0AF041219F0
:1012FD00A0A3EFF07B017A0079A29000E17407F0D2
:05130D00E4FF0214DE04
:0B0CB8009000B6EBF0A3EAF0A3E9F017
:100CC3001219E87B017A0079B99000DB7407F0E42C
:100CD300FF1212449000B9E0FF1219F79000B6E03A
:100CE300FBA3E0FAA3E0F9900006EF1201B4900031
:100CF300BAE0FF1219F79000B6E0FBA3E0FAA3E015
:100D0300F9900005EF1201B49000BBE0FF1219F750
:100D13009000B6E0FBA3E0FAA3E0F9900004EF1221
:100D230001B49000BDE0FF1219F79000B6E0FBA3F9
:100D3300E0FAA3E0F9900002EF1201B49000BEE0E4
:100D4300FF1219F79000B6E0FBA3E0FAA3E0F990D5
:100D53000001EF1201B49000BFE0FF1219F79000F9
:100D6300B6E0FBA3E0FAA3E0F9EF1201A29000B60C
:100D7300E0FBA3E0FAA3E0F990000112017524015E
:100D8300FFE433FE7C007D0D1201D67D0512023D8A
:100D930012015CFD1313543F2DFDE433CD2FFFED02
:100DA3003EFE9000021201757C002FFFEC3ECF2423
:100DB300DCCF34FFFE7D0712023D900003ED0201FC
:010DC300B47B
:1011DC009000C0EBF0A3EAF0A3E9F09000C6E0FEAB
:1011EC00A3E0FF7D009000C3E0FBA3E0FAA3E0F9CD
:1011FC0012037D90000374FFF0A37419F0A37441E3
:10120C00F09000C0E0FBA3E0FAA3E0F99000041218
:10121C000175900006F0900005120175900007F022
:10122C00900006120175900008F09000C3E0FBA33B
:08123C00E0FAA3E0F9020556F7
:101312009000C8EBF0A3EAF0A3E9F09000CEE0FE63
:10132200A3E0FF7D009000CBE0FBA3E0FAA3E0F98D
:1013320012037D90000374FFF0A37419F0A3744E9E
:10134200F09000C8E0FBA3E0FAA3E0F912015C9080
:101352000006F0900001120175900007F090000263
:10136200120175900008F09000CBE0FBA3E0FAA315
:05137200E0F902055640
:091A37004053544349535023006D
:1016A900040D000000004100EF004300ECFF1A3771
:10197500759850438E40538EFE53890F758BD075E5
:071985008DFFC2ABD28E22E0
:03002300020FEEDB
:100FEE00C0E0C083C082C0D075D000C000C001C0B8
:050FFE0002C003C00762
:10100300309902C29930985CC298AF999000ECE095
:10101300FBA3E0FAA3E0F9A3E0F5827583001201D4
:1010230075B5071C9000EFE004F09000ECA3A3A3B8
:10103300E0F582758300120175702975C7608024FD
:101043009000EFE004F09000ECE0FBA3E0FAA3E0F3
:10105300F9A3E0F582758300120175B507069000C8
:04106300EFE004F0C6
:10106700D007D003D002D001D000D0D0D082D08317
:03107700D0E03294
:081A40008F993099FDC2992233
:1019B300438E807589F3758A9A758CA9C28DD28CF2
:0319C300D2A92284
:091A2E00AF10AE0FAD0EAC0D229D
:03000B000218B127
:1018B100C0E0C0D0E5102401F510E4350FF50FE4C8
:0E18C100350EF50EE4350DF50DD0D0D0E03229
:1017A000E4F5B2F5B1F592F59190FE1174E0F043D5
:1017B000B27843B17890FE137478F043920890FEAB
:0617C00021E054F7F022C5
:06184E009000E8120340C7
:1018540075111D7512B7D512FDD511FA9000E874F3
:0A186400FF12030DEC4D4E4F70E62D
:01186E002257
:0619250090004612034091
:10192B0000751405D514FD90004674FF12030DECE1
:05193B004D4E4F70EB62
:011940002284
:0A16B90043008B00C8FF410094FFBE
:10186F00D293000000000000000000C293000000AF
:10187F000000000000000000000000000000000059
:01188F002236
:10189000D2930000000000000000000000000000E3
:1018A0000000000000C293000000000000000000E3
:0118B0002215
:10170200EFC394025035EF75F003A4248EF582E402
:101712003400F583EDF0EF75F003A4248FF582E435
:101722003400F583EBF090002CE0FEEF75F003A49B
:0C1732002490F582E43400F583EEF022F0
:050B9000900029EFF0C8
:100B9500E4A3F0A3F0FE7F06FD7B017A00799512B0
:100BA500037DE490002BF090002BE0FFC3940240FE
:040BB50003020C68C3
:100BB900EF75F003A4248EF9740035F0FA7B01A3D4
:100BC900EBF0A3EAF0A3E9F0900001120175FF7EB2
:100BD90000900029E0FD7C001201D67DFF1201E89A
:100BE900A3E0FE04F074952EF582E43400F583EF5A
:100BF900F090002CE0FBA3E0FAA3E0F912015CFFFE
:100C09007E00900029E0FD7C001201D67DFF1201D3
:100C1900E8A3E0FE04F074952EF582E43400F58330
:100C2900EFF090002CE0FBA3E0FAA3E0F9900002BA
:100C3900120175FF7E00900029E0FD7C001201D6AB
:100C49007DFF1201E8A3E0FE04F074952EF582E41D
:060C59003400F583EFF00A
:100C5F0090002BE004F0020BACE490002BF090001E
:100C6F002AE0FFA3E0FEC39F503474952EF582E473
:100C7F003400F583E0FFE4FE90002BE0FDF8EF0871
:100C8F008002C333D8FC30E7051218908003121886
:100C9F006F0EEEB408E290002BE004F080C07F648A
:090CAF007E007D007C0002192585
:10157900E49000F0F0F09000F0E0FFC394025032E4
:10158900EF75F003A4248EF9740035F0FA7B01A3FA
:10159900EBF0A3EAF0A3E9F0900002E41201B490A1
:0A15A9000001E41201B4E41201A2F3
:0D15B3009000F0E004F080C4E4FF020B9013
:05137700900028EFF0DA
:10137C0012085678887C007D017E007F03120136AE
:10138C0090008BE004F0900088E0FDA3E0FBA3E06C
:10139C0090002CF0E4FF12170212085678887C009B
:1013AC007D017E007F03120136900088E0FDA3E0F2
:1013BC00FBA3E090002CF07F0112170290008BE051
:0A13CC0004F0900028E0FF020B90EF
:061A5D00900094EFF0225E
:1019D800538EFBE4F5D775D6B8438E1043AF042277
:071A5600538EEF53AFFB229A
:030063000216463C
:10164600C0E0C0F0C083C082C0D075D000C000C06A
:1016560001C002C003C004C005C006C007900094C4
:10166600E0FF121377D007D006D005D004D003D000
:1016760002D001D000D0D0D082D083D0F0D0E032DA
:07195B00900031E0FF7DAABE
:10196200AC07ED2401FFE433FEAD047C001201D686
:03197200EEFF2263
:1018EC00AB05AA077C007E001201D6EEFFEA60076A
:0D18FC00EB60047E0180027E00EE2FFF22D3
:1019C600900038EFF0A3EDF0A3EBF07B017A0079FD
:0119D60038D8
:0119D70022ED
:1008560078297C007D017B017A00798B7E007F03FD
:0308660012013646
:1008690090002C7401F0E4A3F0A3F0A3F090002908
:10087900E0FBA3E0900030F090002BE0F9EB541F6F
:1008890033333354F8FF900031F07D55121962AAC1
:1008990007EB30E70302093020E64020E50AC3747C
:1008A900FF9AA3F0A3EA806990002CE0600E900003
:1008B9003274ABF0EA2455A3F0E4A3F090002DE0E4
:0508C900700302098824
:1008CE0012195B900035EFF0FEEA24AA900032F088
:0408DE00EE2455A30C
:0C08E2008036EB20E53890002CE0601818
:1008EE0012195B900035EFF0C374AB9F900032F09D
:0808FE00EA24AAA3F0E4A3F030
:1009060090002DE0607C900031E0FFC374FF9FA350
:10091600F0A374FFF0E4A3F08068E4900032F0C323
:1009260074FF9AA3F0A3EAF08058EB20E63120E5A5
:01093600219F
:1009370012195B900035EFF0E4900032F09000352B
:0F094700E0FFC374AB9F900033F0EF2455A3F093
:100956008030900032EAF0E4A3F0C374FF8020EB0D
:1009660020E50FEA2455900032F0E4A3F0C374ABFF
:10097600800DEA24AA900032F0E4A3F0C374559ADD
:10098600A3F090002EE06007900033E0C313F090D0
:10099600002FE0FD600A900033E0FF1218ECEFF044
:1009A600900030E0FFF4606DEF701090003274FF3D
:0B09B600F0900034F0900033F0805A05
:1009C100900030E0FFC374FF9FFF900035F0FD12EF
:1009D10018ECEFF0C374FF9FA3F0FD900032E0FF2D
:1009E100121962EFF0A3E0FF900036E0FD121962E8
:1009F100900033EFF0A3E0FF900036E0FD121962A2
:100A0100900034EFF0A3E0FF900037F0900032E067
:0A0A11002FF0A3E02FF0A3E02FF078
:100A1B00E9F46035AF01AD011218ECA907E99000BC
:100A2B00327007F0A3F0A3F0801FE0FFAD011219A5
:100A3B0062EFF0A3E0FFAD01121962EFF0A3E0FF4C
:100A4B00AE01AD06121962EFF0900032E0FFA3E0A9
:070A5B00FDA3E0FB0219C638
:0300000002107A71
:0C107A00787FE4F6D8FD7581210210C1DA
:10006600E709F608DFFA8046E709F208DFFA803E7C
:1000760088828C83E709F0A3DFFA8032E309F60869
:10008600DFFA8078E309F208DFFA807088828C83D1
:10009600E309F0A3DFFA806489828A83E0A3F60885
:1000A600DFFA805889828A83E0A3F208DFFA804C5F
:1000B60080D280FA80C680D4806980F28033801036
:1000C60080A680EA809A80A880DA80E280CA80339F
:1000D60089828A83ECFAE493A3C8C582C8CCC58317
:1000E600CCF0A3C8C582C8CCC583CCDFE9DEE780E7
:1000F6000D89828A83E493A3F608DFF9ECFAA9F066
:10010600EDFB2289828A83ECFAE0A3C8C582C8CCBB
:10011600C583CCF0A3C8C582C8CCC583CCDFEADED4
:10012600E880DB89828A83E493A3F208DFF980CC36
:1001360088F0EF60010E4E60C388F0ED2402B4042F
:100146000050B9F582EB2402B4040050AF232345D6
:0601560082239000B67345
:10015C00BB010689828A83E0225002E722BBFE02A1
:09016C00E32289828A83E49322D4
:10017500BB010CE58229F582E5833AF583E022503F
:1001850006E92582F8E622BBFE06E92582F8E22289
:0D019500E58229F582E5833AF583E49322A3
:1001A200BB010689828A83F0225002F722BBFE013C
:0201B200F32236
:1001B400F8BB010DE58229F582E5833AF583E8F081
:1001C400225006E92582C8F622BBFE05E92582C82D
:0201D400F22215
:1001D600EF8DF0A4A8F0CF8CF0A428CE8DF0A42E3D
:0201E600FE22F7
:1001E800BC000BBE0029EF8DF084FFADF022E4CCFB
:1001F800F875F008EF2FFFEE33FEEC33FCEE9DECC4
:10020800984005FCEE9DFE0FD5F0E9E4CEFD22ED09
:10021800F8F5F0EE8420D21CFEADF075F008EF2F53
:10022800FFED33FD4007985006D5F0F222C398FD44
:050238000FD5F0EA22E1
:10023D00C2D5EC30E709B2D5E4C39DFDE49CFCEEDC
:10024D0030E715B2D5E4C39FFFE49EFE1201E8C36B
:10025D00E49DFDE49CFC80031201E830D507C3E466
:06026D009FFFE49EFE224B
:10027300A3F8E0C5F025F0F0E5821582700215833E
:06028300E0C838F0E8229B
:10028900E88FF0A4CC8BF0A42CFCE98EF0A42CFC14
:100299008AF0EDA42CFCEA8EF0A4CDA8F08BF0A492
:1002A9002DCC3825F0FDE98FF0A42CCD35F0FCEBF1
:1002B9008EF0A4FEA9F0EB8FF0A4CFC5F02ECD39B6
:0F02C900FEE43CFCEAA42DCE35F0FDE43CFC2223
:1015C000C2D5E830E70FB2D5E4C39BFBE49AFAE456
:1015D00099F9E498F8EC30E717B2D51215F6120332
:1015E000E5E4C39BFBE49AFAE499F9E498F88003F4
:1015F0001203E530D50DE4C39FFFE49EFEE49DFD9C
:04160000E49CFC2248
:1002D800E8600FECC313FCED13FDEE13FEEF13FF04
:0302E800D8F12228
:1002EB00BB010789828A830204835005E9F8020463
:1002FB0077BBFE05E9F802048F89828A8302049B8F
:10030B007401FF3395E0FEFDFCA3A3A3E02FFFF0E8
:10031B00E582158270021583E03EFEF0E5821582C0
:10032B0070021583E03DFDF0E582158270021583A6
:05033B00E03CFCF02293
:0C034000ECF0A3EDF0A3EEF0A3EFF02230
:10034C00A8828583F0D083D08212036312036312D8
:10035C000363120363E473E493A3C583C5F0C583FD
:10036C00C8C582C8F0A3C583C5F0C583C8C582C8FB
:01037C00225E
:1004F100E5082403F582E43400F583E00508229041
:100501000000300703900003E475F0011204AB0210
:10051100015C2000E97F2ED2008018EF540F249057
:10052100D43440D4FF30040BEF24BFB41A0050037D
:100531002461FFE50960021509050CE50C7002054F
:100541000B30070E900000E475F0011204ABEF02CE
:1005510001A2021A407403D2078003E4C207F5081E
:100561009000001204C2E4F509F50BF50CE50960F1
:10057100077F2012053480F5750AFFC201C200C24F
:1005810002C203C205C206C208120500FF700D3087
:1005910007057F00120545AF0CAE0B22B4255FC2E3
:1005A100D5C204120500FF24D0B40A00501A75F018
:1005B1000A780930D50508B6FF0106C6A426F6203B
:1005C100D5047002D20380D924CFB41A00EF5004AD
:1005D100C2E5D204020746D20180C6D20080C0D251
:1005E1000280BCD2D580BAD20580B47F20120534F6
:1005F1002002077401B5090040F11204F1FF120550
:100601003402056ED208D20680951204F1FB120461
:10061100F1FA1204F1F94A4B700679177A087BFF57
:1006210020022EE509602A7E008E82758300120168
:100631007560060EEE650A70F0C2D5EBC0E0EAC047
:10064100E0E9C0E0EE12078DD0E0F9D0E0FAD0E0A9
:10065100FB12015CFF60AAEBC0E0EAC0E0E9C0E088
:10066100120534D0E02401F9D0E03400FAD0E0FBE7
:10067100E50A0460DCD50AD980877BFF7A0779898E
:10068100D202809C791080027908C206C2088008D3
:10069100D2D5790A8004790AC2D5E50A047002F537
:1006A1000AE4FAFDFEFF1204F1FC7B08200113129B
:1006B10004F1FD7B1030000A1204F1FE1204F1FF77
:1006C1007B20EC3382D592D55013C3E43000069FD2
:1006D100FFE49EFEE42001039DFDE49CFCE4CBF8D5
:1006E100C201EC700CCFCECDCCE824F8F870F380C9
:1006F10017C3EF33FFEE33FEED33FDEC33FCEB3389
:10070100FB994002FB0FD8E9EB300105F8D0E0C4BA
:1007110048B201C0E00AEC4D4E4F78207B0070C218
:10072100EAB50A0040BCC0E012078FD0F0D0E0204B
:100731000104C4C0E0C4B201C0F012051DD0F0D55F
:10074100F0EB02056E1204CB060B5306855805DC4F
:100751004C05D84206894F06914406914905F1435B
:08076100069755067B46067B56
:1007690045067B4708375005E02D05E42E06072B83
:1007790005E82306052008202A05A048000005FFF2
:100789003F3F3F00790AA2D5200314300509B9106B
:10079900020404B9080104A2D5200602500104206C
:1007A90002689202B509005034C0E07F2030031975
:1007B9007F30A20272067205500F1207E6C202C20A
:1007C90006C205C2087F30800F300503E9C0E01278
:1007D9000534300503D0E0F9D0E0B509CC30051770
:1007E9007F30B9100C1205347F583004077F7880A8
:1007F90003B908031205343002057F2D0205347F41
:10080900202008F87F2B2006F322920280CF286E41
:10081900756C6C2900D2011204F13001F8C201781B
:100829000930D50108F60205A02D50434958120494
:10083900F12403B405004001E49008329312052520
:0D084900743A120525D203750904020685D4
:10000E00E4FFFE12015C600C0FEF70010E09E97047
:05001E00F20A80EF2250
:10037D00EF4E6012EF60010EEDBB010B89828A8397
:10038D00F0A3DFFCDEFA2289F05007F709DFFCA9A4
:0C039D00F022BBFEFCF309DFFCA9F022FB
:1010860002198CE493A3F8E493A34003F68001F2DB
:1010960008DFF48029E493A3F85407240CC8C3336B
:1010A600C4540F4420C8834004F456800146F6DF3A
:1010B600E4800B0102040810204080901686E47E2E
:1010C600019360BCA3FF543F30E509541FFEE4932F
:1010D600A360010ECF54C025E060A840B8E493A3F6
:1010E600FAE493A3F8E493A3C8C582C8CAC583CA21
:1010F600F0A3C8C582C8CAC583CADFE9DEE780BED9
:0116C3000026
:1003A90075F008758200EF2FFFEE33FECD33CDCC0B
:1003B90033CCC58233C5829BED9AEC99E58298408E
:1003C9000CF582EE9BFEED9AFDEC99FC0FD5F0D66B
:1003D900E4CEFBE4CDFAE4CCF9A88222B800C1B995
:1003E9000059BA002DEC8BF084CFCECDFCE5F0CBD3
:1003F900F97818EF2FFFEE33FEED33FDEC33FCEB0C
:1004090033FB10D703994004EB99FB0FD8E5E4F9C6
:10041900FA227818EF2FFFEE33FEED33FDEC33FCB3
:10042900C933C910D7059BE99A4007EC9BFCE99AA7
:10043900F90FD8E0E4C9FAE4CCFB2275F010EF2FEC
:10044900FFEE33FEED33FDCC33CCC833C810D707EC
:100459009BEC9AE899400AED9BFDEC9AFCE899F827
:0E0469000FD5F0DAE4CDFBE4CCFAE4C8F922BA
:0C047700E6FC08E6FD08E6FE08E6FF22B1
:0C048300E0FCA3E0FDA3E0FEA3E0FF22EC
:0C048F00E2FC08E2FD08E2FE08E2FF22A9
:10049B00E493FC740193FD740293FE740393FF22A7
:1004AB00F8E0FBA3A3E0F925F0F0E58215827002DA
:0704BB001583E0FA38F0227E
:0904C200EBF0A3EAF0A3E9F0223B
:1004CB00D083D082F8E4937012740193700DA3A3C0
:1004DB0093F8740193F5828883E4737402936860D4
:0604EB00EFA3A3A380DFD4
:00000001FF
