:101BBB0054696D653A25303262642D25303262648A
:021BCB000A000E
:100D80004100FC074100F4034100F3014100FD0074
:080D90004100F2004100F000F7
:1011DF0043BA801219AF121BA8121B76121C8A1267
:1011EF001B0A9000FCE0FF7E00121C0D120066909F
:1011FF0000F4E0FFE4FCFDFEC004C005C006C0071C
:10120F009000D4120354000000009000D812035431
:10121F00000000039000DC12035400000000900057
:10122F00E0120354000000FFD007D006D005D00411
:10123F00120C7D121C84121BDF9000F17401F090D0
:10124F0000F1E0FF64016004EFB4020512101F808B
:0D125F00EE9000F1E0B403E7121B4280E2C4
:10101F007B017A0079F5120B717E007F097D007BD1
:10102F00007A0079081203859000F1E0B40129904D
:10103F0000F0E070047F0180027F009000F0EFF07D
:10104F009000C5E4F0A37400F0A37408F07B017A5C
:10105F000079F512164F80219000F1E0B4021AE4E6
:10106F009000F0F09000C5F0A37400F0A37408F0A6
:10107F007B017A0079F512169F7B007A0079089030
:10108F0000F0E0FD120A577FF47E017D007C001214
:10109F001A717BFF7A1B79BB9000FAE09000CBF0BE
:0B10AF009000FBE09000CCF002056414
:101B42007E007F097D007B007A0079081203857F81
:0A1B5200F47E017D007C00021A7190
:061C6C009000AEEFF02233
:03006B0002173544
:0F173500C0E0C083C082C0D075D000C006C0071E
:1017440090FD13E0FF6025E4F0EF30E3047E0180B8
:1017540016EF30E4047E02800EEF30E5047E038051
:0C17640006EF30E6027E04AF06121C6C9B
:0D177000D007D006D0D0D082D083D0E03298
:100D98004100950141000005580096000000000040
:100DA800000000000000000000000000000000003B
:100DB80000000060940001003333000020100000A0
:100DC800E1210000E1300000E2100000C330000023
:100DD800C331000021100000E3310000E3300000BF
:100DE80008040000E3110000A934000003210000FA
:100DF80029340000C3210000C3010000C3310000F2
:100E0800E211000009240000082400005209000033
:100E180002210000361100002619000023310000CD
:100E2800E101000023390000E1090000C33000009F
:100E3800090400002230000024180000221B0000D2
:0B0E4800140A00001404000011200434
:1019420090FECCE4F090FEC97468F090FECC741066
:10195200F090FED7E4F0A374C8F090FED27403F0C6
:10196200A374E8F090FEB17404F090FEDD7480F090
:0819720090FEC0E04481F02268
:0D1C1B0090FEC0E054FEF090FEB1E4F02217
:101B0A00D2911219427F0612197AE4FF1218C9906B
:0C1B1A000000E0FF7E00121C0D020026FF
:08000300C291121C1B02002631
:100026007E007F187D007B017A0079961203857B1E
:10003600017A0079969000D3E4F0A37418F0E4FFF7
:0300460002114F55
:08180800900127EEF0A3EFF0C0
:10181000AF05120E6A1202F378101202E09001294D
:10182000EFF01202F378081202E090012AEFF012B2
:1018300002F390012BEFF07B017A0179299000D31C
:0B184000E4F0A37403F0E4FF02114F7A
:06149C0090011A12034842
:1014A20090011AE0FCA3E0FDA3E0FEA3E0FF7810A8
:1014B2001202E0A3EFF090011AE0FCA3E0FDA3E02A
:1014C200FEA3E0FF78081202E090011FEFF0900106
:1014D2001AE0FCA3E0FDA3E0FEA3E0FF900120EFF1
:1014E200F07B017A01791E9000D3E4F0A37403F03B
:0514F200E4FF02114FB0
:100A57009000C5EDF09000C2EBF0A3EAF0A3E9F037
:100A670012000EE49000C6F0A3F0A3F0A3F0D3EFBA
:100A77009409EE940040067E007F0980009000CA2A
:100A8700EEF0A3EFF07E007F187D007B017A0079FE
:100A970096120385E49000C8F0A3F09000CAE0FE28
:100AA700A3E0FF9000C8E0FCA3E0FDC39FEC9E40DD
:100AB70003020B5A9000C2E0FBA3E0FAA3E0F98D12
:0A0AC700828C8312017D607A607852
:100AD1009000C8E0FEA3E0F5828E8312017DFF1233
:100AE1000E6A9000CCEBF0A3EAF0A3E9F01202F356
:100AF10078101202E0E49000C675F00112027BFC4E
:100B0100749625F0F58274003CF583EFF01202F340
:100B110078081202E0E49000C675F00112027BFC35
:100B2100749625F0F58274003CF583EFF01202F320
:100B3100E49000C675F00112027BFC749625F0F575
:080B41008274003CF583EFF023
:100B49009000C9E004F070069000C8E004F0020AC1
:100B5900A27B017A0079969000D3E4F0A37418F08F
:070B6900E4FF12114F7F01B0
:010B70002262
:0D1C2800900095EFF0900000E0FD02188B99
:0E1C0D00900000EFF0FD900095E0FF02188BB4
:060C7D009000D0120348B4
:100C83009000DCE0F8A3E0F9A3E0FAA3E0FBA3E023
:100C9300FCA3E0FDA3E0FEA3E0C39BFFEE9AFEED01
:100CA30099FDEC98FCA31203489000D4E0F8A3E06C
:100CB300F9A3E0FAA3E0FBA3E0FCA3E0FDA3E0FEBD
:100CC300A3E0C39BFFEE9AFEED99FDEC98FC900028
:100CD300E81203489000D4E0F8A3E0F9A3E0FAA3F4
:100CE300E0FB9000D0E0FCA3E0FDA3E0FEA3E0C3A3
:100CF3009BFFEE9AFEED99FDEC98FC9000EC12033D
:100D030048E47B02FAF9F89000E8E0FCA3E0FDA3D5
:100D1300E0FEA3E0FF1217C4C004C005C006C0076D
:100D23009000E4E0FCA3E0FDA3E0FEA3E0FF90005D
:100D3300ECE0F8A3E0F9A3E0FAA3E0FB120291D000
:100D430003D002D001D000EF2BFFEE3AFEED39FDC8
:100D5300EC38FC9000E8E0F8A3E0F9A3E0FAA3E0A4
:100D6300FB1217C49000DCE0F8A3E0F9A3E0FAA3B8
:0C0D7300E02FFFEA3EFEE93DFDE83CFCFD
:010D7F002251
:100E6A009000CFEFF0BF2003020F479000CFE0FFC2
:100E7A00C3648094B04041D3EF648094BA5039E09F
:100E8A003395E0FEFDFCC004C005C006C007900013
:100E9A00D4120354000000309000D812035400000A
:100EAA00003A9000DC120354000000009000E012A7
:100EBA0003540000000A804B9000CFE0FFC3648017
:100ECA0094C1405ED3EF648094DA5056E03395E0E3
:100EDA00FEFDFCC004C005C006C0079000D4120382
:100EEA0054000000419000D81203540000005A90A8
:100EFA0000DC1203540000000B9000E012035400BF
:100F0A00000024D007D006D005D004120C7DE47B63
:100F1A0004FAF9F812029174012FF974003EFA7B6F
:100F2A0001229000CFE0FFC3648094E1400FD3EF29
:100F3A00648094FA5007EF24E0FF020E6A7B007A7D
:040F4A000079002208
:051365009000D7EFF03D
:10136A00E4A3F0A3F0C2909000D8F0A3F07F0A7E25
:10137A00007D007C00121B269000D7E030E004D2EA
:10138A00B78002C2B77F0A7E007D007C00121B264E
:10139A00D2907F0A7E007D007C00121B26C29090AC
:1013AA0000D7E0C313F09000D9E004F07006900073
:1013BA00D8E004F0C39000D9E094089000D8E094F3
:0313CA000040AA36
:0113CD0022FD
:1018C9009000C27440F0EF6004E04404F0D2947FC9
:1018D9000A7E007D007C00121B26C2947F0A7E00CE
:1018E9007D007C00121B269000C2E0FF1213657F69
:0C18F9000A7E007D007C00121B26D294A9
:0119050022BF
:10197A009000C2EFF0D2947F0A7E007D007C0012B4
:10198A001B26C2947F0A7E007D007C00121B2690D3
:10199A0000C2E0FF1213657F0A7E007D007C001200
:0519AA001B26D294226F
:10188B00ED44809000C2F0EF6004E04408F0D29485
:10189B007F0A7E007D007C00121B26C2947F0A7E8D
:1018AB00007D007C00121B269000C2E0FF12136526
:0D18BB007F0A7E007D007C00121B26D29467
:0118C80022FD
:0E114F009000CFEFF0A3EBF0A3EAF0A3E9F0DD
:10115D00E49000D5F0A3F0D2947F0AFEFDFC121BA3
:10116D0026C2947F0A7E007D007C00121B26900013
:10117D00CFE044C0FF1213657F0A7E007D007C0026
:10118D00121B26E49000D5F0A3F09000D3E0FEA34F
:10119D00E0FFA3E0FCA3E0FDC39FEC9E5026900072
:1011AD00D0E0FBA3E0FAA3E0F98D828C8312017DE0
:1011BD00FF1213659000D6E004F070CE9000D5E0DC
:1011CD0004F080C67F0A7E007D007C00121B26D2B3
:0111DD00947D
:0111DE0022EE
:101A9200253032626425303262642530326264005D
:101AA200323025626425303262642530326264004D
:071C5E004391404392402234
:071C65004391405392BF229E
:0F1BEF0043912043922043918053927F021C5ECA
:0B19DF00EFF0A3EBF0A3EAF0A3E9F0A7
:1019EA00121C5ED296D2957F047E007D007C001286
:1019FA001B26C2967F047E007D007C00121B26C235
:021A0A00952223
:101A5000121C5EC295C296D2957F047E007D007CEA
:101A600000121B26D2967F047E007D007C00021BA4
:011A7000264F
:101A0C00121C5ED296C2957F047E007D007C001273
:101A1C001B26D2957F047E007D007C00121B26C203
:021A2C00952201
:101A2E00121C5EC296C2957F047E007D007C001261
:101A3E001B26D2957F047E007D007C00121B26C2E1
:021A4E009522DF
:1012F800E49000D4F0A37403F0D2967F017E007DC1
:10130800007C00121B26121C657F017E007D007C7C
:1013180000121B26D2957F017E007D007C00121BE7
:101328002630961C9000D5E0D3940040137F017EB0
:10133800007D007C00121B269000D5E014F080E1AF
:101348009000D5E060069000D47401F09000D4E0DD
:0C1358007003121A50C2959000D4E0FF00
:011364002266
:0515A9009000D2EFF0FC
:1015AE00121C5EC2957F047E007D007C00121B26FD
:1015BE00E49000D3F09000D2E030E704D29680029F
:1015CE00C2967F047E007D007C00121B26D2957F82
:1015DE00047E007D007C00121B26C2959000D2E096
:1015EE00FF25E0F0A3E004F0E0C3940840C7021228
:0115FE00F8F4
:051552009000D2EFF053
:10155700E4A3F0121C65A3F0C2957F047E007D0012
:101567007C00121B26D2959000D3E025E0F0309640
:1015770004E04401F07F017E007D007C00121B2601
:101587009000D4E004F0E0C3940840CCC2959000EA
:10159700D2E06005121A2E8003121A0C9000D3E0D5
:0115A700FF44
:0115A8002220
:0313CE009000CCC0
:1013D1001219DF7F641215A9EF60589000CCE0FF6D
:1013E1001215A9EF604D1219EA7F651215A9EF6078
:1013F10042E49000D1F09000D0E0FFA3E0FEC39F53
:10140100502EEF14B506047F0080027F01121552A1
:101411009000CDE0FBA3E0FAA3E0F99000D1E0F564
:1014210082758300EF1201BC9000D1E004F080C608
:03143100121A503C
:011434002295
:0315FF0090012137
:101602001219DF7F641215A9EF6041900121E0FFFA
:101612001215A9EF6036E4900126F0900125E0FF53
:10162200A3E0FEC39F5022900122E0FBA3E0FAA3B5
:10163200E0F98E8275830012017DFF1215A9EF6019
:0C1642000B900126E004F080D2121A5038
:01164E002279
:031C8A00021BEF4B
:101AD000121BEFE4900130F0A37440F07B017A0117
:0D1AE00079309001257402F07FE00215FFBF
:10004E00EF75F00A84C454F0FEEF75F00A84E5F003
:03005E004EFF2230
:0F1BFE00EFC4540F75F00AA4FEEF540F2EFF2210
:02143500AC0702
:10143700121BEF900104E0FF12004EA3EFF09001A2
:1014470003E0FF12004E900106EFF0900102E0FF6B
:1014570012004E900107EFF0900101E0FFF8E40859
:101467008002C313D8FC4401900108F0AF031200B7
:101477004EA3EFF0AF0512004EA3EFF0AF0412003A
:101487004EA3EFF07B017A0179059001257407F0EF
:05149700E4FF0215FF57
:0B0B71009000C2EBF0A3EAF0A3E9F053
:100B7C00121BEF7B017A0079C59000D07407F0E46A
:100B8C00FF1213CE9000C5E0FF121BFE9000C2E0D6
:100B9C00FBA3E0FAA3E0F9900006EF1201BC900071
:100BAC00C6E0FF121BFE9000C2E0FBA3E0FAA3E03C
:100BBC00F9900005EF1201BC9000C7E0FF121BFE7C
:100BCC009000C2E0FBA3E0FAA3E0F9900004EF125E
:100BDC0001BC9000C9E0FF121BFE9000C2E0FBA319
:100BEC00E0FAA3E0F9900002EF1201BC9000CAE019
:100BFC00FF121BFE9000C2E0FBA3E0FAA3E0F99009
:100C0C000001EF1201BC9000CBE0FF121BFE900024
:100C1C00C2E0FBA3E0FAA3E0F9EF1201AA9000C234
:100C2C00E0FBA3E0FAA3E0F990000112017D24019E
:100C3C00FFE433FE7C007D0D1201DE7D05120245C2
:100C4C00120164FD1313543F2DFDE433CD2FFFED42
:100C5C003EFE90000212017D7C002FFFEC3ECF2463
:100C6C00DCCF34FFFE7D07120245900003ED02013C
:010C7C00BCBB
:10164F009000C2EBF0A3EAF0A3E9F09000CB74FF97
:10165F00F0A3741AF0A37492F09000C2E0FBA3E021
:10166F00FAA3E0F990000412017D9000CEF09000F3
:10167F000512017D9000CFF090000612017D9000C1
:10168F00D0F09000C5E0FBA3E0FAA3E0F902055EFD
:10169F009000C2EBF0A3EAF0A3E9F09000CB74FF47
:1016AF00F0A3741AF0A374A2F09000C2E0FBA3E0C1
:1016BF00FAA3E0F91201649000CEF090000112013C
:1016CF007D9000CFF090000212017D9000D0F0903D
:0D16DF0000C5E0FBA3E0FAA3E0F902055E00
:0C1C3500405354434953502300FF1C351A
:0C0E5300042200000000C109410132002F
:101B7600759850438E40538EFE53890F758BD075E2
:091B86008DFFC2ABD28ED2AC225D
:030023000210BA0E
:1010BA00C0E0C083C082C0D075D000C000C001C0EB
:0510CA0002C003C00795
:1010CF00309904C299C209309863C298AF99901CA5
:1010DF003EE493FB740193FA740293F9900132E0AA
:1010EF00F58275830012017DB50719900132E00476
:1010FF00F0900132E0F58275830012017D702E753C
:10110F00C7608029900132E004F0901C3EE493FB0D
:10111F00740193FA740293F9900132E0F5827583AA
:0D112F000012017DB50706900132E004F0CA
:10113C00D007D003D002D001D000D0D0D082D08341
:03114C00D0E032BE
:101B8F0012016460132009FDD209120164F59974E2
:091B9F000129F9E43AFA80E82278
:081C56002009FDD2098F99223B
:101BA800438E807589F3758A9A758CA9C28DD28CFB
:031BB800D2A9228D
:091C4D00AF25AE24AD23AC222228
:03000B00021AB224
:101AB200C0E0C0D0E5252401F525E43524F524E471
:0E1AC2003523F523E43522F522D0D0D0E032D2
:1019AF00E4F5B2F5B1F592F59190FE1174E0F043C4
:1019BF00B27843B17890FE137478F043920890FD9B
:1019CF0023E4F090FD33F090FD037478F0D2AF2252
:061A71009000C2120348C0
:101A770075181D7519B7D519FDD518FA9000C274D8
:0A1A8700FF120315EC4D4E4F70E600
:011A91002232
:061B26009000DA120348F2
:101B2C0000751805D518FD9000DA74FF120315EC3A
:051B3C004D4E4F70EB5F
:011B41002281
:0A0E5F0043010F0064FF410119FF79
:03004B00021C7222
:061C720075CDC0C20A326C
:0C1C410075CDC075CED443AF02C2932213
:061C7800E4F5CEC2932248
:061C7E00200AFD8FCF22B9
:1016EC007D067C00121C41E4FEEEC39DE49C50364A
:1016FC0074112EF8E69000B6F0E4FB9000B6E030E2
:10170C00E706A374FCF080069000B774C0F090005C
:10171C00B7E0FF121C7E9000B6E0FF25E0F00BEB6B
:03172C00B408D826
:06172F000E80C3021C78CD
:10190600EFC394025035EF75F003A42413F582E477
:101916003401F583EDF0EF75F003A42414F582E4A9
:101926003401F583EBF09000B3E0FEEF75F003A40D
:0C1936002415F582E43401F583EEF02264
:050F4E009000B0EFF07F
:100F5300E4A3F0A3F0FE7F06FDFB7A0079111203F0
:100F630085E49000B2F09000B2E0FFC39402400326
:030F730002101158
:100F7600EF75F003A42413F9740135F0FA7B01A38D
:100F8600EBF0A3EAF0A3E9F090000112017DFF7EE9
:100F9600009000B0E0FD7C001201DE7DFF1201F042
:100FA600A3E0FE04F074112EF8A6079000B3E0FB50
:100FB600A3E0FAA3E0F9120164FF7E009000B0E01E
:100FC600FD7C001201DE7DFF1201F0A3E0FE04F0BD
:100FD60074112EF8A6079000B3E0FBA3E0FAA3E095
:100FE600F990000212017DFF7E009000B0E0FD7CCA
:100FF600001201DE7DFF1201F0A3E0FE04F0741181
:041006002EF8A60713
:10100A00A3E004F0020F691216EC7F647E007D00F3
:05101A007C00021B2612
:10177D00E490012CF0F090012CE0FFC39402503264
:10178D00EF75F003A42413F9740135F0FA7B01A36E
:10179D00EBF0A3EAF0A3E9F0900002E41201BC9093
:0A17AD000001E41201BCE41201AADD
:0D17B70090012CE004F080C4E4FF020F4E0E
:0514F7009000AFEFF0D2
:1014FC0078B07C007D017B017A01790F7E007F033F
:10150C0012013E12085E780C7C017D017E007F0387
:10151C0012013E90010CE0FDA3E0FBA3E09000B3B0
:10152C00F0E4FF12190690010CE0FDA3E0FBA3E030
:10153C009000B3F00F12190690010FE004F0900028
:06154C00AFE0FF020F4EAC
:061C8400900119EFF022AF
:101BDF00538EFBE4F5D775D670438E1043AF0422B6
:04006600538EEF22A4
:0300630002184B35
:10184B00C0E0C0F0C083C082C0D075D000C000C063
:10185B0001C002C003C004C005C006C00790011937
:10186B00E0FF1214F7D007D006D005D004D003D078
:10187B0002D001D000D0D0D082D083D0F0D0E032D3
:071B5C009000B8E0FF7DAA34
:101B6300AC07ED2401FFE433FEAD047C001201DE7B
:031B7300EEFF2260
:101AED00AB05AA077C007E001201DEEEFFEA60075F
:0D1AFD00EB60047E0180027E00EE2FFF22D0
:101BCD009000BFEFF0A3EDF0A3EBF07B017A00796D
:011BDD00BF48
:011BDE0022E4
:10085E009000B37401F0E4A3F0A3F0A3F09000B005
:10086E00E0FBA3E09000B7F09000B2E0F9EB541F6C
:10087E0033333354F8FF9000B8F07D55121B63AA42
:10088E0007EB30E70302092520E64020E50AC37492
:10089E00FF9AA3F0A3EA80699000B3E0600E900087
:1008AE00B974ABF0EA2455A3F0E4A3F09000B4E0E1
:0508BE00700302097D3A
:1008C300121B5C9000BCEFF0FEEA24AA9000B9F082
:0408D300EE2455A317
:0C08D7008036EB20E5389000B3E060189C
:1008E300121B5C9000BCEFF0C374AB9F9000B9F097
:0808F300EA24AAA3F0E4A3F03B
:1008FB009000B4E0607C9000B8E0FFC374FF9FA34E
:10090B00F0A374FFF0E4A3F08068E49000B9F0C3A7
:10091B0074FF9AA3F0A3EAF08058EB20E63120E5B0
:01092B0021AA
:10092C00121B5C9000BCEFF0E49000B9F09000BC9E
:0F093C00E0FFC374AB9F9000BAF0EF2455A3F017
:10094B0080309000B9EAF0E4A3F0C374FF8020EB91
:10095B0020E50FEA24559000B9F0E4A3F0C374AB83
:10096B00800DEA24AA9000B9F0E4A3F0C374559A61
:10097B00A3F09000B5E060079000BAE0C313F090CD
:10098B0000B6E0FD600A9000BAE0FF121AEDEFF03E
:10099B009000B7E0FFF4606DEF70109000B974FF3A
:0B09AB00F09000BBF09000BAF0805A02
:1009B6009000B7E0FFC374FF9FFF9000BCF0FD12EC
:1009C6001AEDEFF0C374FF9FA3F0FD9000B9E0FFAE
:1009D600121B63EFF0A3E0FF9000BDE0FD121B6366
:1009E6009000BAEFF0A3E0FF9000BDE0FD121B639C
:1009F6009000BBEFF0A3E0FF9000BEF09000B9E0DE
:0A0A06002FF0A3E02FF0A3E02FF083
:100A1000E9F46035AF01AD01121AEDA907E99000C4
:100A2000B97007F0A3F0A3F0801FE0FFAD01121B27
:100A300063EFF0A3E0FFAD01121B63EFF0A3E0FF53
:100A4000AE01AD06121B63EFF09000B9E0FFA3E02A
:070A5000FDA3E0FB021BCD3A
:0300000002126C7D
:0C126C00787FE4F6D8FD7581250212B3EE
:10006E00E709F608DFFA8046E709F208DFFA803E74
:10007E0088828C83E709F0A3DFFA8032E309F60861
:10008E00DFFA8078E309F208DFFA807088828C83C9
:10009E00E309F0A3DFFA806489828A83E0A3F6087D
:1000AE00DFFA805889828A83E0A3F208DFFA804C57
:1000BE0080D280FA80C680D4806980F2803380102E
:1000CE0080A680EA809A80A880DA80E280CA803397
:1000DE0089828A83ECFAE493A3C8C582C8CCC5830F
:1000EE00CCF0A3C8C582C8CCC583CCDFE9DEE780DF
:1000FE000D89828A83E493A3F608DFF9ECFAA9F05E
:10010E00EDFB2289828A83ECFAE0A3C8C582C8CCB3
:10011E00C583CCF0A3C8C582C8CCC583CCDFEADECC
:10012E00E880DB89828A83E493A3F208DFF980CC2E
:10013E0088F0EF60010E4E60C388F0ED2402B40427
:10014E000050B9F582EB2402B4040050AF232345CE
:06015E0082239000BE7335
:10016400BB010689828A83E0225002E722BBFE0299
:09017400E32289828A83E49322CC
:10017D00BB010CE58229F582E5833AF583E0225037
:10018D0006E92582F8E622BBFE06E92582F8E22281
:0D019D00E58229F582E5833AF583E493229B
:1001AA00BB010689828A83F0225002F722BBFE0134
:0201BA00F3222E
:1001BC00F8BB010DE58229F582E5833AF583E8F079
:1001CC00225006E92582C8F622BBFE05E92582C825
:0201DC00F2220D
:1001DE00EF8DF0A4A8F0CF8CF0A428CE8DF0A42E35
:0201EE00FE22EF
:1001F000BC000BBE0029EF8DF084FFADF022E4CCF3
:10020000F875F008EF2FFFEE33FEEC33FCEE9DECBB
:10021000984005FCEE9DFE0FD5F0E9E4CEFD22ED01
:10022000F8F5F0EE8420D21CFEADF075F008EF2F4B
:10023000FFED33FD4007985006D5F0F222C398FD3C
:050240000FD5F0EA22D9
:10024500C2D5EC30E709B2D5E4C39DFDE49CFCEED4
:1002550030E715B2D5E4C39FFFE49EFE1201F0C35B
:10026500E49DFDE49CFC80031201F030D507C3E456
:060275009FFFE49EFE2243
:10027B00A3F8E0C5F025F0F0E58215827002158336
:06028B00E0C838F0E82293
:10029100E88FF0A4CC8BF0A42CFCE98EF0A42CFC0C
:1002A1008AF0EDA42CFCEA8EF0A4CDA8F08BF0A48A
:1002B1002DCC3825F0FDE98FF0A42CCD35F0FCEBE9
:1002C1008EF0A4FEA9F0EB8FF0A4CFC5F02ECD39AE
:0F02D100FEE43CFCEAA42DCE35F0FDE43CFC221B
:1017C400C2D5E830E70FB2D5E4C39BFBE49AFAE450
:1017D40099F9E498F8EC30E717B2D51217FA120326
:1017E400EDE4C39BFBE49AFAE499F9E498F88003E6
:1017F4001203ED30D50DE4C39FFFE49EFEE49DFD8E
:04180400E49CFC2242
:1002E000E8600FECC313FCED13FDEE13FEEF13FFFC
:0302F000D8F12220
:1002F300BB010789828A8302048B5005E9F8020453
:100303007FBBFE05E9F802049789828A830204A36E
:100313007401FF3395E0FEFDFCA3A3A3E02FFFF0E0
:10032300E582158270021583E03EFEF0E5821582B8
:1003330070021583E03DFDF0E5821582700215839E
:05034300E03CFCF0228B
:0C034800ECF0A3EDF0A3EEF0A3EFF02228
:10035400A8828583F0D083D08212036B12036B12C0
:10036400036B12036BE473E493A3C583C5F0C583E5
:10037400C8C582C8F0A3C583C5F0C583C8C582C8F3
:010384002256
:1004F900E51824CBF582E43400F583E00518229051
:1005090000C83007039000CBE475F0011204B30270
:1005190001642000E97F2ED2008018EF540F249047
:10052900D43440D4FF30040BEF24BFB41A00500375
:100539002461FFE51960021519051CE51C70020507
:100549001B30070E9000C8E475F0011204B3EF02E6
:1005590001AA021C567403D2078003E4C207F518E6
:100569009000C81204CAE4F519F51BF51CE51960D9
:10057900077F2012053C80F5751AFFC201C200C22F
:1005890002C203C205C206C208120508FF700D3077
:1005990007057F0012054DAF1CAE1B22B4255FC2B3
:1005A900D5C204120508FF24D0B40A00501A75F008
:1005B9000A781930D50508B6FF0106C6A426F62023
:1005C900D5047002D20380D924CFB41A00EF5004A5
:1005D900C2E5D20402074ED20180C6D20080C0D241
:1005E9000280BCD2D580BAD20580B47F2012053CE6
:1005F9002002077401B5190040F11204F9FF120530
:100609003C020576D208D20680951204F9FB120441
:10061900F9FA1204F9F94A4B7006791F7A087BFF37
:1006290020022EE519602A7E008E82758300120150
:100639007D60060EEE651A70F0C2D5EBC0E0EAC027
:10064900E0E9C0E0EE120795D0E0F9D0E0FAD0E099
:10065900FB120164FF60AAEBC0E0EAC0E0E9C0E078
:1006690012053CD0E02401F9D0E03400FAD0E0FBD7
:10067900E51A0460DCD51AD980877BFF7A0779915E
:10068900D202809C791080027908C206C2088008CB
:10069900D2D5790A8004790AC2D5E51A047002F51F
:1006A9001AE4FAFDFEFF1204F9FC7B08200113127B
:1006B90004F9FD7B1030000A1204F9FE1204F9FF57
:1006C9007B20EC3382D592D55013C3E43000069FCA
:1006D900FFE49EFEE42001039DFDE49CFCE4CBF8CD
:1006E900C201EC700CCFCECDCCE824F8F870F380C1
:1006F90017C3EF33FFEE33FEED33FDEC33FCEB3381
:10070900FB994002FB0FD8E9EB300105F8D0E0C4B2
:1007190048B201C0E00AEC4D4E4F78207B0070C210
:10072900EAB51A0040BCC0E0120797D0F0D0E0202B
:100739000104C4C0E0C4B201C0F0120525D0F0D54F
:10074900F0EB0205761204D3061353068D5805E41F
:100759004C05E04206914F06994406994905F9432B
:08076900069F55068346068336
:1007710045068347083F5005E82D05EC2E060F2B53
:1007810005F023060D2008282A05A84800000607C1
:100791003F3F3F00790AA2D5200314300509B91063
:1007A100020404B9080104A2D52006025001042064
:1007B10002689202B519005034C0E07F203003195D
:1007C1007F30A20272067205500F1207EEC202C2FA
:1007D10006C205C2087F30800F300503E9C0E01270
:1007E100053C300503D0E0F9D0E0B519CC30051750
:1007F1007F30B9100C12053C7F583004077F788098
:1008010003B9080312053C3002057F2D02053C7F28
:10081100202008F87F2B2006F322920280CF286E39
:10082100756C6C2900D2011204F93001F8C201780B
:100831001930D50108F60205A82D50434958120474
:10084100F92403B405004001E490083A9312052D00
:0D085100743A12052DD20375190402068DAC
:10000E00E4FFFE120164600C0FEF70010E09E9703F
:05001E00F20A80EF2250
:10038500EF4E6012EF60010EEDBB010B89828A838F
:10039500F0A3DFFCDEFA2289F05007F709DFFCA99C
:0C03A500F022BBFEFCF309DFFCA9F022F3
:101278000211DFE493A3F8E493A34003F68001F29C
:1012880008DFF48029E493A3F85407240CC8C33377
:10129800C4540F4420C8834004F456800146F6DF46
:1012A800E4800B0102040810204080900D80E47E49
:1012B800019360BCA3FF543F30E509541FFEE4933B
:1012C800A360010ECF54C025E060A840B8E493A302
:1012D800FAE493A3F8E493A3C8C582C8CAC583CA2D
:1012E800F0A3C8C582C8CAC583CADFE9DEE780BEE5
:010E69000088
:1003B10075F008758200EF2FFFEE33FECD33CDCC03
:1003C10033CCC58233C5829BED9AEC99E582984086
:1003D1000CF582EE9BFEED9AFDEC99FC0FD5F0D663
:1003E100E4CEFBE4CDFAE4CCF9A88222B800C1B98D
:1003F1000059BA002DEC8BF084CFCECDFCE5F0CBCB
:10040100F97818EF2FFFEE33FEED33FDEC33FCEB03
:1004110033FB10D703994004EB99FB0FD8E5E4F9BE
:10042100FA227818EF2FFFEE33FEED33FDEC33FCAB
:10043100C933C910D7059BE99A4007EC9BFCE99A9F
:10044100F90FD8E0E4C9FAE4CCFB2275F010EF2FE4
:10045100FFEE33FEED33FDCC33CCC833C810D707E4
:100461009BEC9AE899400AED9BFDEC9AFCE899F81F
:0E0471000FD5F0DAE4CDFBE4CCFAE4C8F922B2
:0C047F00E6FC08E6FD08E6FE08E6FF22A9
:0C048B00E0FCA3E0FDA3E0FEA3E0FF22E4
:0C049700E2FC08E2FD08E2FE08E2FF22A1
:1004A300E493FC740193FD740293FE740393FF229F
:1004B300F8E0FBA3A3E0F925F0F0E58215827002D2
:0704C3001583E0FA38F02276
:0904CA00EBF0A3EAF0A3E9F02233
:1004D300D083D082F8E4937012740193700DA3A3B8
:1004E30093F8740193F5828883E4737402936860CC
:0604F300EFA3A3A380DFCC
:00000001FF
